Component: ARM Compiler 5.05 update 1 (build 106) Tool: armlink [4d0efa]

==============================================================================

Section Cross References

    main.o(.text) refers to system.o(.text) for NVIC_Configuration
    main.o(.text) refers to usart.o(.text) for uart_init
    main.o(.text) refers to gpio.o(.text) for GpioInit
    main.o(.text) refers to delay.o(.text) for DelayInit
    main.o(.text) refers to timer.o(.text) for Timer2_Config
    main.o(.text) refers to iwdg.o(.text) for IWDG_Init
    main.o(.text) refers to oled.o(.text) for OLED_Init
    main.o(.text) refers to key.o(.text) for SmartConfigKey
    main.o(.text) refers to config8266.o(.text) for APUConfig
    main.o(.text) refers to dht11.o(.text) for DHT11_Read_Data
    main.o(.text) refers to key.o(.bss) for KeySmartConfig
    main.o(.text) refers to config8266.o(.data) for SmartConfigFlage
    main.o(.text) refers to main.o(.data) for RendTHCnt
    main.o(.text) refers to dht11.o(.data) for DHT11Data
    system.o(.text) refers to misc.o(.text) for NVIC_PriorityGroupConfig
    delay.o(.text) refers to misc.o(.text) for SysTick_CLKSourceConfig
    delay.o(.text) refers to system_stm32f10x.o(.data) for SystemCoreClock
    delay.o(.text) refers to delay.o(.data) for fac_us
==============================================================================

Removing Unused input sections from the image.

    Removing stm32f10x_it.o(.rev16_text), (4 bytes).
    Removing stm32f10x_it.o(.revsh_text), (4 bytes).
    Removing main.o(.rev16_text), (4 bytes).
    Removing main.o(.revsh_text), (4 bytes).
    Removing system.o(.rev16_text), (4 bytes).
    Removing system.o(.revsh_text), (4 bytes).
    Removing delay.o(.rev16_text), (4 bytes).
    Removing delay.o(.revsh_text), (4 bytes).
    Removing usart.o(.rev16_text), (4 bytes).
    Removing usart.o(.revsh_text), (4 bytes).
    Removing gpio.o(.rev16_text), (4 bytes).
    Removing gpio.o(.revsh_text), (4 bytes).
    Removing looplist.o(.rev16_text), (4 bytes).
    Removing looplist.o(.revsh_text), (4 bytes).
    Removing looplist.o(.text), (800 bytes).
    Removing configmoduleblock.o(.rev16_text), (4 bytes).
    Removing configmoduleblock.o(.revsh_text), (4 bytes).
    Removing cstring.o(.rev16_text), (4 bytes).
==============================================================================

Image Symbol Table

    Local Symbols

    Symbol Name                              Value     Ov Type        Size  Object(Section)

    ../clib/../cmprslib/zerorunl2.c          0x00000000   Number         0  __dczerorl2.o ABSOLUTE
    ../clib/microlib/division.c              0x00000000   Number         0  uldiv.o ABSOLUTE
    ../clib/microlib/division.c              0x00000000   Number         0  uidiv.o ABSOLUTE
    ../clib/microlib/init/entry.s            0x00000000   Number         0  entry10a.o ABSOLUTE
    ../clib/microlib/init/entry.s            0x00000000   Number         0  entry9b.o ABSOLUTE
    ../clib/microlib/init/entry.s            0x00000000   Number         0  entry11b.o ABSOLUTE
    ../clib/microlib/init/entry.s            0x00000000   Number         0  entry7a.o ABSOLUTE
    ../clib/microlib/init/entry.s            0x00000000   Number         0  entry9a.o ABSOLUTE
    ../clib/microlib/init/entry.s            0x00000000   Number         0  entry8b.o ABSOLUTE
    ../clib/microlib/init/entry.s            0x00000000   Number         0  entry.o ABSOLUTE
    ../clib/microlib/init/entry.s            0x00000000   Number         0  entry8a.o ABSOLUTE
    ../clib/microlib/init/entry.s            0x00000000   Number         0  entry11a.o ABSOLUTE
    ../clib/microlib/init/entry.s            0x00000000   Number         0  entry5.o ABSOLUTE
    ../clib/microlib/init/entry.s            0x00000000   Number         0  entry7b.o ABSOLUTE
    ../clib/microlib/init/entry.s            0x00000000   Number         0  entry10b.o ABSOLUTE
    ../clib/microlib/init/entry.s            0x00000000   Number         0  entry2.o ABSOLUTE
    ../clib/microlib/longlong.c              0x00000000   Number         0  llsshr.o ABSOLUTE
    ../clib/microlib/longlong.c              0x00000000   Number         0  llushr.o ABSOLUTE
    ../clib/microlib/longlong.c              0x00000000   Number         0  llshl.o ABSOLUTE
    ../clib/microlib/malloc/malloc.c         0x00000000   Number         0  malloc.o ABSOLUTE
    ../clib/microlib/malloc/malloc.c         0x00000000   Number         0  mallocr.o ABSOLUTE
    ../clib/microlib/malloc/malloc.c         0x00000000   Number         0  malloca.o ABSOLUTE
    ../clib/microlib/malloc/malloc.c         0x00000000   Number         0  mallocra.o ABSOLUTE
    ../clib/microlib/malloc/mvars.c          0x00000000   Number         0  mvars.o ABSOLUTE
    ../clib/microlib/printf/printf.c         0x00000000   Number         0  printfb.o ABSOLUTE
    ../clib/microlib/printf/printf.c         0x00000000   Number         0  printf0.o ABSOLUTE
    ../clib/microlib/printf/printf.c         0x00000000   Number         0  printf2.o ABSOLUTE
    ../clib/microlib/printf/printf.c         0x00000000   Number         0  printf1.o ABSOLUTE
    ../clib/microlib/printf/printf.c         0x00000000   Number         0  printf8.o ABSOLUTE
    ../clib/microlib/printf/printf.c         0x00000000   Number         0  printfa.o ABSOLUTE
    ../clib/microlib/printf/printf.c         0x00000000   Number         0  printf6.o ABSOLUTE
    ../clib/microlib/printf/printf.c         0x00000000   Number         0  printf7.o ABSOLUTE
    ../clib/microlib/printf/printf.c         0x00000000   Number         0  printf3.o ABSOLUTE
    ../clib/microlib/printf/printf.c         0x00000000   Number         0  printf5.o ABSOLUTE
    ../clib/microlib/printf/printf.c         0x00000000   Number         0  printf4.o ABSOLUTE
    ../clib/microlib/printf/stubs.s          0x00000000   Number         0  stubs.o ABSOLUTE
    ../clib/microlib/stdio/streams.c         0x00000000   Number         0  stdout.o ABSOLUTE
    ../clib/microlib/string/memcpy.c         0x00000000   Number         0  memcpya.o ABSOLUTE
    ../clib/microlib/string/memcpy.c         0x00000000   Number         0  memcpyb.o ABSOLUTE
    ../clib/microlib/string/memset.c         0x00000000   Number         0  memseta.o ABSOLUTE
    ../clib/microlib/string/strlen.c         0x00000000   Number         0  strlen.o ABSOLUTE
    ../clib/microlib/string/strstr.c         0x00000000   Number         0  strstr.o ABSOLUTE
    ../clib/microlib/string/strtok.c         0x00000000   Number         0  strtok.o ABSOLUTE
    ../clib/microlib/string/strtok.c         0x00000000   Number         0  strtok_r.o ABSOLUTE
    ../clib/microlib/stubs.s                 0x00000000   Number         0  iusefp.o ABSOLUTE
    ../fplib/microlib/fpadd.c                0x00000000   Number         0  dadd.o ABSOLUTE
    ../fplib/microlib/fpdiv.c                0x00000000   Number         0  ddiv.o ABSOLUTE
    ../fplib/microlib/fpepilogue.c           0x00000000   Number         0  depilogue.o ABSOLUTE
    ../fplib/microlib/fpfix.c                0x00000000   Number         0  dfixul.o ABSOLUTE
    ../fplib/microlib/fpmul.c                0x00000000   Number         0  dmul.o ABSOLUTE
    ..\CMSIS\core_cm3.c                      0x00000000   Number         0  core_cm3.o ABSOLUTE
    ..\CMSIS\system_stm32f10x.c              0x00000000   Number         0  system_stm32f10x.o ABSOLUTE
    ..\Libraries\src\misc.c                  0x00000000   Number         0  misc.o ABSOLUTE
    ..\Libraries\src\stm32f10x_flash.c       0x00000000   Number         0  stm32f10x_flash.o ABSOLUTE
    ..\Libraries\src\stm32f10x_gpio.c        0x00000000   Number         0  stm32f10x_gpio.o ABSOLUTE
    ..\Libraries\src\stm32f10x_iwdg.c        0x00000000   Number         0  stm32f10x_iwdg.o ABSOLUTE
    ..\Libraries\src\stm32f10x_rcc.c         0x00000000   Number         0  stm32f10x_rcc.o ABSOLUTE
    ..\Libraries\src\stm32f10x_tim.c         0x00000000   Number         0  stm32f10x_tim.o ABSOLUTE
    ..\Libraries\src\stm32f10x_usart.c       0x00000000   Number         0  stm32f10x_usart.o ABSOLUTE
    ..\Startup\startup_stm32f10x_hd.s        0x00000000   Number         0  startup_stm32f10x_hd.o ABSOLUTE
    ..\User\Config8266.c                     0x00000000   Number         0  config8266.o ABSOLUTE
    ..\User\ConfigModuleBlock.c              0x00000000   Number         0  configmoduleblock.o ABSOLUTE
    ..\User\DHT11.c                          0x00000000   Number         0  dht11.o ABSOLUTE
    ..\User\LoopList.c                       0x00000000   Number         0  looplist.o ABSOLUTE
    ..\User\System.c                         0x00000000   Number         0  system.o ABSOLUTE
    ..\User\cString.c                        0x00000000   Number         0  cstring.o ABSOLUTE
    ..\User\delay.c                          0x00000000   Number         0  delay.o ABSOLUTE
    ..\User\gpio.c                           0x00000000   Number         0  gpio.o ABSOLUTE
    ..\User\iwdg.c                           0x00000000   Number         0  iwdg.o ABSOLUTE
    ..\User\key.c                            0x00000000   Number         0  key.o ABSOLUTE
    ..\User\main.c                           0x00000000   Number         0  main.o ABSOLUTE
    ..\User\oled.c                           0x00000000   Number         0  oled.o ABSOLUTE
    ..\User\stm32f10x_it.c                   0x00000000   Number         0  stm32f10x_it.o ABSOLUTE
    ..\User\timer.c                          0x00000000   Number         0  timer.o ABSOLUTE
    ..\User\usart.c                          0x00000000   Number         0  usart.o ABSOLUTE
    ..\\CMSIS\\core_cm3.c                    0x00000000   Number         0  core_cm3.o ABSOLUTE
    ..\\Libraries\\src\\misc.c               0x00000000   Number         0  misc.o ABSOLUTE
    ..\\Libraries\\src\\stm32f10x_flash.c    0x00000000   Number         0  stm32f10x_flash.o ABSOLUTE
    ..\\Libraries\\src\\stm32f10x_gpio.c     0x00000000   Number         0  stm32f10x_gpio.o ABSOLUTE
    ..\\Libraries\\src\\stm32f10x_iwdg.c     0x00000000   Number         0  stm32f10x_iwdg.o ABSOLUTE
    ..\\Libraries\\src\\stm32f10x_rcc.c      0x00000000   Number         0  stm32f10x_rcc.o ABSOLUTE
    ..\\Libraries\\src\\stm32f10x_tim.c      0x00000000   Number         0  stm32f10x_tim.o ABSOLUTE
    ..\\Libraries\\src\\stm32f10x_usart.c    0x00000000   Number         0  stm32f10x_usart.o ABSOLUTE
    ..\\User\\Config8266.c                   0x00000000   Number         0  config8266.o ABSOLUTE
    ..\\User\\ConfigModuleBlock.c            0x00000000   Number         0  configmoduleblock.o ABSOLUTE
    ..\\User\\DHT11.c                        0x00000000   Number         0  dht11.o ABSOLUTE
    ..\\User\\LoopList.c                     0x00000000   Number         0  looplist.o ABSOLUTE
    ..\\User\\System.c                       0x00000000   Number         0  system.o ABSOLUTE
    ..\\User\\cString.c                      0x00000000   Number         0  cstring.o ABSOLUTE
    ..\\User\\delay.c                        0x00000000   Number         0  delay.o ABSOLUTE
    ..\\User\\gpio.c                         0x00000000   Number         0  gpio.o ABSOLUTE
    ..\\User\\iwdg.c                         0x00000000   Number         0  iwdg.o ABSOLUTE
    ..\\User\\key.c                          0x00000000   Number         0  key.o ABSOLUTE
    ..\\User\\main.c                         0x00000000   Number         0  main.o ABSOLUTE
    ..\\User\\oled.c                         0x00000000   Number         0  oled.o ABSOLUTE
    ..\\User\\stm32f10x_it.c                 0x00000000   Number         0  stm32f10x_it.o ABSOLUTE
    ..\\User\\timer.c                        0x00000000   Number         0  timer.o ABSOLUTE
    ..\\User\\usart.c                        0x00000000   Number         0  usart.o ABSOLUTE
    cdrcmple.s                               0x00000000   Number         0  cdrcmple.o ABSOLUTE
    dc.s                                     0x00000000   Number         0  dc.o ABSOLUTE
    handlers.s                               0x00000000   Number         0  handlers.o ABSOLUTE
    init.s                                   0x00000000   Number         0  init.o ABSOLUTE
    RESET                                    0x08000000   Section      304  startup_stm32f10x_hd.o(RESET)
    .ARM.Collect$$$$00000000                 0x08000130   Section        0  entry.o(.ARM.Collect$$$$00000000)
    .ARM.Collect$$$$00000001                 0x08000130   Section        4  entry2.o(.ARM.Collect$$$$00000001)
    .ARM.Collect$$$$00000004                 0x08000134   Section        4  entry5.o(.ARM.Collect$$$$00000004)
    .ARM.Collect$$$$00000008                 0x08000138   Section        0  entry7b.o(.ARM.Collect$$$$00000008)
    .ARM.Collect$$$$0000000A                 0x08000138   Section        0  entry8b.o(.ARM.Collect$$$$0000000A)
    .ARM.Collect$$$$0000000B                 0x08000138   Section        8  entry9a.o(.ARM.Collect$$$$0000000B)
    .ARM.Collect$$$$0000000D                 0x08000140   Section        0  entry10a.o(.ARM.Collect$$$$0000000D)
    .ARM.Collect$$$$0000000F                 0x08000140   Section        0  entry11a.o(.ARM.Collect$$$$0000000F)
    .ARM.Collect$$$$00002712                 0x08000140   Section        4  entry2.o(.ARM.Collect$$$$00002712)
    __lit__00000000                          0x08000140   Data           4  entry2.o(.ARM.Collect$$$$00002712)
    .text                                    0x08000144   Section        0  stm32f10x_it.o(.text)
    .text                                    0x08000188   Section        0  main.o(.text)
    .text                                    0x0800028c   Section        0  system.o(.text)
    .text                                    0x080002fc   Section        0  delay.o(.text)
    .text                                    0x080003d0   Section        0  usart.o(.text)
    .text                                    0x08000524   Section        0  gpio.o(.text)
    .text                                    0x080005a4   Section        0  configmoduleblock.o(.text)
    .text                                    0x0800065c   Section        0  cstring.o(.text)
    .text                                    0x08000798   Section        0  dht11.o(.text)
    .text                                    0x08000968   Section        0  oled.o(.text)
    .text                                    0x08000f38   Section        0  key.o(.text)
    .text                                    0x08000fa0   Section        0  config8266.o(.text)
    .text                                    0x080015a0   Section        0  iwdg.o(.text)
    .text                                    0x080015cc   Section        0  timer.o(.text)
    .text                                    0x08001700   Section        0  system_stm32f10x.o(.text)
    SetSysClockTo72                          0x08001701   Thumb Code   214  system_stm32f10x.o(.text)
    SetSysClock                              0x080017d7   Thumb Code     8  system_stm32f10x.o(.text)
    .text                                    0x080018e0   Section        0  misc.o(.text)
    .text                                    0x080019bc   Section        0  stm32f10x_rcc.o(.text)
    .text                                    0x08001d60   Section        0  stm32f10x_usart.o(.text)
    .text                                    0x08002168   Section        0  stm32f10x_gpio.o(.text)
    .text                                    0x080024c4   Section        0  stm32f10x_tim.o(.text)
    TI4_Config                               0x0800296b   Thumb Code   130  stm32f10x_tim.o(.text)
    TI3_Config                               0x080029ff   Thumb Code   122  stm32f10x_tim.o(.text)
    TI2_Config                               0x08002a93   Thumb Code   130  stm32f10x_tim.o(.text)
    TI1_Config                               0x08002b27   Thumb Code   108  stm32f10x_tim.o(.text)
    .text                                    0x080032e0   Section        0  stm32f10x_iwdg.o(.text)
    .text                                    0x08003320   Section       36  startup_stm32f10x_hd.o(.text)
    .text                                    0x08003344   Section        0  memcpya.o(.text)
    .text                                    0x08003368   Section        0  memseta.o(.text)
    .text                                    0x0800338c   Section        0  strstr.o(.text)
    .text                                    0x080033b0   Section        0  strlen.o(.text)
    .text                                    0x080033c0   Section        0  strtok.o(.text)
    .text                                    0x08003404   Section        0  uidiv.o(.text)
    .text                                    0x08003430   Section       36  init.o(.text)
    .text                                    0x08003454   Section        0  __dczerorl2.o(.text)
    i.__0printf$6                            0x080034ac   Section        0  printf6.o(i.__0printf$6)
    i.__0sprintf$6                           0x080034cc   Section        0  printf6.o(i.__0sprintf$6)
    i.__scatterload_copy                     0x080034f4   Section       14  handlers.o(i.__scatterload_copy)
    i.__scatterload_null                     0x08003502   Section        2  handlers.o(i.__scatterload_null)
    i.__scatterload_zeroinit                 0x08003504   Section       14  handlers.o(i.__scatterload_zeroinit)
    i._printf_core                           0x08003514   Section        0  printf6.o(i._printf_core)
    _printf_core                             0x08003515   Thumb Code   748  printf6.o(i._printf_core)
    i._printf_post_padding                   0x08003804   Section        0  printf6.o(i._printf_post_padding)
    _printf_post_padding                     0x08003805   Thumb Code    36  printf6.o(i._printf_post_padding)
    i._printf_pre_padding                    0x08003828   Section        0  printf6.o(i._printf_pre_padding)
    _printf_pre_padding                      0x08003829   Thumb Code    46  printf6.o(i._printf_pre_padding)
    i._sputc                                 0x08003856   Section        0  printf6.o(i._sputc)
    _sputc                                   0x08003857   Thumb Code    10  printf6.o(i._sputc)
    i.free                                   0x08003860   Section        0  malloc.o(i.free)
    i.malloc                                 0x080038b0   Section        0  malloc.o(i.malloc)
    .constdata                               0x0800391c   Section     2072  oled.o(.constdata)
    .data                                    0x20000000   Section       12  main.o(.data)
    .data                                    0x2000000c   Section        4  delay.o(.data)
    fac_us                                   0x2000000c   Data           1  delay.o(.data)
    fac_ms                                   0x2000000e   Data           2  delay.o(.data)
    .data                                    0x20000010   Section       18  usart.o(.data)
    flage                                    0x20000021   Data           1  usart.o(.data)
    .data                                    0x20000024   Section       12  configmoduleblock.o(.data)
    .data                                    0x20000030   Section        9  cstring.o(.data)
    .data                                    0x20000039   Section        7  dht11.o(.data)
    .data                                    0x20000040   Section      256  oled.o(.data)
    .data                                    0x20000140   Section       20  config8266.o(.data)
    .data                                    0x20000154   Section       20  system_stm32f10x.o(.data)
    .data                                    0x20000168   Section       20  stm32f10x_rcc.o(.data)
    APBAHBPrescTable                         0x20000168   Data          16  stm32f10x_rcc.o(.data)
    ADCPrescTable                            0x20000178   Data           4  stm32f10x_rcc.o(.data)
    .data                                    0x2000017c   Section        4  strtok.o(.data)
    state                                    0x2000017c   Data           4  strtok.o(.data)
    .data                                    0x20000180   Section        4  stdout.o(.data)
    .data                                    0x20000184   Section        4  mvars.o(.data)
    .data                                    0x20000188   Section        4  mvars.o(.data)
    .bss                                     0x2000018c   Section      200  main.o(.bss)
    .bss                                     0x20000254   Section      150  usart.o(.bss)
    .bss                                     0x200002ec   Section       28  key.o(.bss)
    .bss                                     0x20000308   Section      135  config8266.o(.bss)
    HEAP                                     0x20000390   Section      512  startup_stm32f10x_hd.o(HEAP)
    STACK                                    0x20000590   Section     1024  startup_stm32f10x_hd.o(STACK)

    Global Symbols

    Symbol Name                              Value     Ov Type        Size  Object(Section)

    BuildAttributes$$THM_ISAv4$P$D$K$B$S$PE$A:L22UL41UL21$X:L11$S22US41US21$IEEE1$IW$USESV6$~STKCKD$USESV7$~SHL$OSPACE$ROPI$EBA8$MICROLIB$REQ8$PRES8$EABIv2 0x00000000   Number         0  anon$$obj.o ABSOLUTE
    __ARM_use_no_argv                        0x00000000   Number         0  main.o ABSOLUTE
    _printf_a                                0x00000000   Number         0  stubs.o ABSOLUTE
    _printf_c                                0x00000000   Number         0  stubs.o ABSOLUTE
    _printf_charcount                        0x00000000   Number         0  stubs.o ABSOLUTE
    _printf_d                                0x00000000   Number         0  stubs.o ABSOLUTE
    _printf_e                                0x00000000   Number         0  stubs.o ABSOLUTE
    _printf_f                                0x00000000   Number         0  stubs.o ABSOLUTE
    _printf_flags                            0x00000000   Number         0  stubs.o ABSOLUTE
    _printf_fp_dec                           0x00000000   Number         0  stubs.o ABSOLUTE
    _printf_fp_hex                           0x00000000   Number         0  stubs.o ABSOLUTE
    _printf_g                                0x00000000   Number         0  stubs.o ABSOLUTE
    _printf_i                                0x00000000   Number         0  stubs.o ABSOLUTE
    _printf_int_dec                          0x00000000   Number         0  stubs.o ABSOLUTE
    _printf_l                                0x00000000   Number         0  stubs.o ABSOLUTE
    _printf_lc                               0x00000000   Number         0  stubs.o ABSOLUTE
    _printf_ll                               0x00000000   Number         0  stubs.o ABSOLUTE
    _printf_lld                              0x00000000   Number         0  stubs.o ABSOLUTE
    _printf_lli                              0x00000000   Number         0  stubs.o ABSOLUTE
    _printf_llo                              0x00000000   Number         0  stubs.o ABSOLUTE
    _printf_llu                              0x00000000   Number         0  stubs.o ABSOLUTE
    _printf_llx                              0x00000000   Number         0  stubs.o ABSOLUTE
    _printf_longlong_dec                     0x00000000   Number         0  stubs.o ABSOLUTE
    _printf_longlong_hex                     0x00000000   Number         0  stubs.o ABSOLUTE
    _printf_longlong_oct                     0x00000000   Number         0  stubs.o ABSOLUTE
    _printf_ls                               0x00000000   Number         0  stubs.o ABSOLUTE
    _printf_mbtowc                           0x00000000   Number         0  stubs.o ABSOLUTE
    _printf_n                                0x00000000   Number         0  stubs.o ABSOLUTE
    _printf_o                                0x00000000   Number         0  stubs.o ABSOLUTE
    _printf_p                                0x00000000   Number         0  stubs.o ABSOLUTE
    _printf_percent                          0x00000000   Number         0  stubs.o ABSOLUTE
    _printf_pre_padding                      0x00000000   Number         0  stubs.o ABSOLUTE
    _printf_return_value                     0x00000000   Number         0  stubs.o ABSOLUTE
    _printf_s                                0x00000000   Number         0  stubs.o ABSOLUTE
    _printf_sizespec                         0x00000000   Number         0  stubs.o ABSOLUTE
    _printf_str                              0x00000000   Number         0  stubs.o ABSOLUTE
    _printf_truncate_signed                  0x00000000   Number         0  stubs.o ABSOLUTE
    _printf_truncate_unsigned                0x00000000   Number         0  stubs.o ABSOLUTE
    _printf_u                                0x00000000   Number         0  stubs.o ABSOLUTE
    _printf_wc                               0x00000000   Number         0  stubs.o ABSOLUTE
    _printf_wctomb                           0x00000000   Number         0  stubs.o ABSOLUTE
    _printf_widthprec                        0x00000000   Number         0  stubs.o ABSOLUTE
    _printf_x                                0x00000000   Number         0  stubs.o ABSOLUTE
    __cpp_initialize__aeabi_                  - Undefined Weak Reference
    __cxa_finalize                            - Undefined Weak Reference
    _clock_init                               - Undefined Weak Reference
    _microlib_exit                            - Undefined Weak Reference
    __Vectors_Size                           0x00000130   Number         0  startup_stm32f10x_hd.o ABSOLUTE
    __Vectors                                0x08000000   Data           4  startup_stm32f10x_hd.o(RESET)
    __Vectors_End                            0x08000130   Data           0  startup_stm32f10x_hd.o(RESET)
    __main                                   0x08000131   Thumb Code     0  entry.o(.ARM.Collect$$$$00000000)
    _main_stk                                0x08000131   Thumb Code     0  entry2.o(.ARM.Collect$$$$00000001)
    _main_scatterload                        0x08000135   Thumb Code     0  entry5.o(.ARM.Collect$$$$00000004)
    __main_after_scatterload                 0x08000139   Thumb Code     0  entry5.o(.ARM.Collect$$$$00000004)
    _main_clock                              0x08000139   Thumb Code     0  entry7b.o(.ARM.Collect$$$$00000008)
    _main_cpp_init                           0x08000139   Thumb Code     0  entry8b.o(.ARM.Collect$$$$0000000A)
    _main_init                               0x08000139   Thumb Code     0  entry9a.o(.ARM.Collect$$$$0000000B)
    __rt_final_cpp                           0x08000141   Thumb Code     0  entry10a.o(.ARM.Collect$$$$0000000D)
    __rt_final_exit                          0x08000141   Thumb Code     0  entry11a.o(.ARM.Collect$$$$0000000F)
    NMI_Handler                              0x08000145   Thumb Code     2  stm32f10x_it.o(.text)
    HardFault_Handler                        0x08000147   Thumb Code    40  stm32f10x_it.o(.text)
    MemManage_Handler                        0x0800016f   Thumb Code     4  stm32f10x_it.o(.text)
    BusFault_Handler                         0x08000173   Thumb Code     4  stm32f10x_it.o(.text)
    UsageFault_Handler                       0x08000177   Thumb Code     4  stm32f10x_it.o(.text)
    SVC_Handler                              0x0800017b   Thumb Code     2  stm32f10x_it.o(.text)
    DebugMon_Handler                         0x0800017d   Thumb Code     2  stm32f10x_it.o(.text)
    PendSV_Handler                           0x0800017f   Thumb Code     2  stm32f10x_it.o(.text)
    main                                     0x08000189   Thumb Code   232  main.o(.text)
    NVIC_Configuration                       0x0800028d   Thumb Code    68  system.o(.text)
    Reset_MCU                                0x080002d1   Thumb Code    36  system.o(.text)
    DelayInit                                0x080002fd   Thumb Code    50  delay.o(.text)
    delay_us                                 0x0800032f   Thumb Code    72  delay.o(.text)
    delay_ms                                 0x08000377   Thumb Code    72  delay.o(.text)
    uart_init                                0x080003d1   Thumb Code   124  usart.o(.text)
    UsartOutStr                              0x0800044d   Thumb Code    48  usart.o(.text)
    UsartOutChar                             0x0800047d   Thumb Code    28  usart.o(.text)
    USART1_IRQHandler                        0x08000499   Thumb Code    60  usart.o(.text)
    fputc                                    0x080004d5   Thumb Code    56  usart.o(.text)
    GpioInit                                 0x08000525   Thumb Code   120  gpio.o(.text)
    ConfigModuleBlock                        0x080005a5   Thumb Code   160  configmoduleblock.o(.text)
    cStringFree                              0x0800065d   Thumb Code    12  cstring.o(.text)
    StrBetwStringMalloc                      0x08000669   Thumb Code   108  cstring.o(.text)
    cStringRestore                           0x080006d5   Thumb Code    12  cstring.o(.text)
    StrBetwString                            0x080006e1   Thumb Code    86  cstring.o(.text)
    split                                    0x08000737   Thumb Code    84  cstring.o(.text)
    DHT11_Rst                                0x08000799   Thumb Code    30  dht11.o(.text)
    DHT11_Check                              0x080007b7   Thumb Code    74  dht11.o(.text)
    DHT11_Read_Bit                           0x08000801   Thumb Code    76  dht11.o(.text)
    DHT11_Read_Byte                          0x0800084d   Thumb Code    30  dht11.o(.text)
    DHT11_Read_Data                          0x0800086b   Thumb Code   228  dht11.o(.text)
    IIC_Start                                0x08000969   Thumb Code    36  oled.o(.text)
    IIC_Stop                                 0x0800098d   Thumb Code    28  oled.o(.text)
    IIC_Wait_Ack                             0x080009a9   Thumb Code    20  oled.o(.text)
    Write_IIC_Byte                           0x080009bd   Thumb Code    80  oled.o(.text)
    Write_IIC_Command                        0x08000a0d   Thumb Code    44  oled.o(.text)
    Write_IIC_Data                           0x08000a39   Thumb Code    44  oled.o(.text)
    OLED_WR_Byte                             0x08000a65   Thumb Code    24  oled.o(.text)
    fill_picture                             0x08000a7d   Thumb Code    64  oled.o(.text)
    Delay_50ms                               0x08000abd   Thumb Code    22  oled.o(.text)
    Delay_1ms                                0x08000ad3   Thumb Code    26  oled.o(.text)
    OLED_Set_Pos                             0x08000aed   Thumb Code    40  oled.o(.text)
    OLED_Display_On                          0x08000b15   Thumb Code    28  oled.o(.text)
    OLED_Display_Off                         0x08000b31   Thumb Code    28  oled.o(.text)
    OLED_Clear                               0x08000b4d   Thumb Code    62  oled.o(.text)
    OLED_On                                  0x08000b8b   Thumb Code    62  oled.o(.text)
    OLED_ShowChar                            0x08000bc9   Thumb Code   154  oled.o(.text)
    oled_pow                                 0x08000c63   Thumb Code    22  oled.o(.text)
    OLED_ShowNum                             0x08000c79   Thumb Code   136  oled.o(.text)
    OLED_ShowString                          0x08000d01   Thumb Code    58  oled.o(.text)
    OLED_ShowCHinese                         0x08000d3b   Thumb Code   112  oled.o(.text)
    OLED_DrawBMP                             0x08000dab   Thumb Code   118  oled.o(.text)
    OLED_Init                                0x08000e21   Thumb Code   270  oled.o(.text)
    SmartConfigKey                           0x08000f39   Thumb Code    96  key.o(.text)
    Rst8266                                  0x08000fa1   Thumb Code    26  config8266.o(.text)
    APUConfig                                0x08000fbb   Thumb Code   684  config8266.o(.text)
    SmartConfig                              0x08001267   Thumb Code   230  config8266.o(.text)
    Init8266                                 0x0800134d   Thumb Code   560  config8266.o(.text)
    IWDG_Init                                0x080015a1   Thumb Code    36  iwdg.o(.text)
    IWDG_Feed                                0x080015c5   Thumb Code     8  iwdg.o(.text)
    Timer2_Config                            0x080015cd   Thumb Code    80  timer.o(.text)
    TIM2_IRQHandler                          0x0800161d   Thumb Code   184  timer.o(.text)
    SystemInit                               0x080017df   Thumb Code    78  system_stm32f10x.o(.text)
    SystemCoreClockUpdate                    0x0800182d   Thumb Code   142  system_stm32f10x.o(.text)
    NVIC_PriorityGroupConfig                 0x080018e1   Thumb Code    10  misc.o(.text)
    NVIC_Init                                0x080018eb   Thumb Code   100  misc.o(.text)
    NVIC_SetVectorTable                      0x0800194f   Thumb Code    14  misc.o(.text)
    NVIC_SystemLPConfig                      0x0800195d   Thumb Code    34  misc.o(.text)
    SysTick_CLKSourceConfig                  0x0800197f   Thumb Code    40  misc.o(.text)
    RCC_DeInit                               0x080019bd   Thumb Code    64  stm32f10x_rcc.o(.text)
    RCC_HSEConfig                            0x080019fd   Thumb Code    70  stm32f10x_rcc.o(.text)
    RCC_GetFlagStatus                        0x08001a43   Thumb Code    56  stm32f10x_rcc.o(.text)
    RCC_WaitForHSEStartUp                    0x08001a7b   Thumb Code    56  stm32f10x_rcc.o(.text)
    RCC_AdjustHSICalibrationValue            0x08001ab3   Thumb Code    20  stm32f10x_rcc.o(.text)
    RCC_HSICmd                               0x08001ac7   Thumb Code     6  stm32f10x_rcc.o(.text)
    RCC_PLLConfig                            0x08001acd   Thumb Code    24  stm32f10x_rcc.o(.text)
    RCC_PLLCmd                               0x08001ae5   Thumb Code     6  stm32f10x_rcc.o(.text)
    RCC_SYSCLKConfig                         0x08001aeb   Thumb Code    18  stm32f10x_rcc.o(.text)
    RCC_GetSYSCLKSource                      0x08001afd   Thumb Code    10  stm32f10x_rcc.o(.text)
    RCC_HCLKConfig                           0x08001b07   Thumb Code    18  stm32f10x_rcc.o(.text)
    RCC_PCLK1Config                          0x08001b19   Thumb Code    18  stm32f10x_rcc.o(.text)
    RCC_PCLK2Config                          0x08001b2b   Thumb Code    20  stm32f10x_rcc.o(.text)
    RCC_ITConfig                             0x08001b3f   Thumb Code    26  stm32f10x_rcc.o(.text)
    RCC_USBCLKConfig                         0x08001b59   Thumb Code     8  stm32f10x_rcc.o(.text)
    RCC_ADCCLKConfig                         0x08001b61   Thumb Code    18  stm32f10x_rcc.o(.text)
    RCC_LSEConfig                            0x08001b73   Thumb Code    50  stm32f10x_rcc.o(.text)
    RCC_LSICmd                               0x08001ba5   Thumb Code     6  stm32f10x_rcc.o(.text)
    RCC_RTCCLKConfig                         0x08001bab   Thumb Code    12  stm32f10x_rcc.o(.text)
    RCC_RTCCLKCmd                            0x08001bb7   Thumb Code     8  stm32f10x_rcc.o(.text)
    RCC_GetClocksFreq                        0x08001bbf   Thumb Code   192  stm32f10x_rcc.o(.text)
    RCC_AHBPeriphClockCmd                    0x08001c7f   Thumb Code    26  stm32f10x_rcc.o(.text)
    RCC_APB2PeriphClockCmd                   0x08001c99   Thumb Code    26  stm32f10x_rcc.o(.text)
    RCC_APB1PeriphClockCmd                   0x08001cb3   Thumb Code    26  stm32f10x_rcc.o(.text)
    RCC_APB2PeriphResetCmd                   0x08001ccd   Thumb Code    26  stm32f10x_rcc.o(.text)
    RCC_APB1PeriphResetCmd                   0x08001ce7   Thumb Code    26  stm32f10x_rcc.o(.text)
    RCC_BackupResetCmd                       0x08001d01   Thumb Code     8  stm32f10x_rcc.o(.text)
    RCC_ClockSecuritySystemCmd               0x08001d09   Thumb Code     6  stm32f10x_rcc.o(.text)
    RCC_MCOConfig                            0x08001d0f   Thumb Code     6  stm32f10x_rcc.o(.text)
    RCC_ClearFlag                            0x08001d15   Thumb Code    14  stm32f10x_rcc.o(.text)
    RCC_GetITStatus                          0x08001d23   Thumb Code    20  stm32f10x_rcc.o(.text)
    RCC_ClearITPendingBit                    0x08001d37   Thumb Code     6  stm32f10x_rcc.o(.text)
    USART_DeInit                             0x08001d61   Thumb Code   134  stm32f10x_usart.o(.text)
    USART_Init                               0x08001de7   Thumb Code   210  stm32f10x_usart.o(.text)
    USART_StructInit                         0x08001eb9   Thumb Code    24  stm32f10x_usart.o(.text)
    USART_ClockInit                          0x08001ed1   Thumb Code    34  stm32f10x_usart.o(.text)
    USART_ClockStructInit                    0x08001ef3   Thumb Code    12  stm32f10x_usart.o(.text)
    USART_Cmd                                0x08001eff   Thumb Code    24  stm32f10x_usart.o(.text)
    USART_ITConfig                           0x08001f17   Thumb Code    74  stm32f10x_usart.o(.text)
    USART_DMACmd                             0x08001f61   Thumb Code    18  stm32f10x_usart.o(.text)
    USART_SetAddress                         0x08001f73   Thumb Code    18  stm32f10x_usart.o(.text)
    USART_WakeUpConfig                       0x08001f85   Thumb Code    18  stm32f10x_usart.o(.text)
    USART_ReceiverWakeUpCmd                  0x08001f97   Thumb Code    24  stm32f10x_usart.o(.text)
    USART_LINBreakDetectLengthConfig         0x08001faf   Thumb Code    18  stm32f10x_usart.o(.text)
    USART_LINCmd                             0x08001fc1   Thumb Code    24  stm32f10x_usart.o(.text)
    USART_SendData                           0x08001fd9   Thumb Code     8  stm32f10x_usart.o(.text)
    USART_ReceiveData                        0x08001fe1   Thumb Code    10  stm32f10x_usart.o(.text)
    USART_SendBreak                          0x08001feb   Thumb Code    10  stm32f10x_usart.o(.text)
    USART_SetGuardTime                       0x08001ff5   Thumb Code    16  stm32f10x_usart.o(.text)
    USART_SetPrescaler                       0x08002005   Thumb Code    16  stm32f10x_usart.o(.text)
    USART_SmartCardCmd                       0x08002015   Thumb Code    24  stm32f10x_usart.o(.text)
    USART_SmartCardNACKCmd                   0x0800202d   Thumb Code    24  stm32f10x_usart.o(.text)
    USART_HalfDuplexCmd                      0x08002045   Thumb Code    24  stm32f10x_usart.o(.text)
    USART_OverSampling8Cmd                   0x0800205d   Thumb Code    22  stm32f10x_usart.o(.text)
    USART_OneBitMethodCmd                    0x08002073   Thumb Code    24  stm32f10x_usart.o(.text)
    USART_IrDAConfig                         0x0800208b   Thumb Code    18  stm32f10x_usart.o(.text)
    USART_IrDACmd                            0x0800209d   Thumb Code    24  stm32f10x_usart.o(.text)
    USART_GetFlagStatus                      0x080020b5   Thumb Code    26  stm32f10x_usart.o(.text)
    USART_ClearFlag                          0x080020cf   Thumb Code    18  stm32f10x_usart.o(.text)
    USART_GetITStatus                        0x080020e1   Thumb Code    84  stm32f10x_usart.o(.text)
    USART_ClearITPendingBit                  0x08002135   Thumb Code    52  stm32f10x_usart.o(.text)
    GPIO_DeInit                              0x08002169   Thumb Code   172  stm32f10x_gpio.o(.text)
    GPIO_AFIODeInit                          0x08002215   Thumb Code    20  stm32f10x_gpio.o(.text)
    GPIO_Init                                0x08002229   Thumb Code   278  stm32f10x_gpio.o(.text)
    GPIO_StructInit                          0x0800233f   Thumb Code    16  stm32f10x_gpio.o(.text)
    GPIO_ReadInputDataBit                    0x0800234f   Thumb Code    18  stm32f10x_gpio.o(.text)
    GPIO_ReadInputData                       0x08002361   Thumb Code     8  stm32f10x_gpio.o(.text)
    GPIO_ReadOutputDataBit                   0x08002369   Thumb Code    18  stm32f10x_gpio.o(.text)
    GPIO_ReadOutputData                      0x0800237b   Thumb Code     8  stm32f10x_gpio.o(.text)
    GPIO_SetBits                             0x08002383   Thumb Code     4  stm32f10x_gpio.o(.text)
    GPIO_ResetBits                           0x08002387   Thumb Code     4  stm32f10x_gpio.o(.text)
    GPIO_WriteBit                            0x0800238b   Thumb Code    10  stm32f10x_gpio.o(.text)
    GPIO_Write                               0x08002395   Thumb Code     4  stm32f10x_gpio.o(.text)
    GPIO_PinLockConfig                       0x08002399   Thumb Code    18  stm32f10x_gpio.o(.text)
    GPIO_EventOutputConfig                   0x080023ab   Thumb Code    26  stm32f10x_gpio.o(.text)
    GPIO_EventOutputCmd                      0x080023c5   Thumb Code     6  stm32f10x_gpio.o(.text)
    GPIO_PinRemapConfig                      0x080023cb   Thumb Code   138  stm32f10x_gpio.o(.text)
    GPIO_EXTILineConfig                      0x08002455   Thumb Code    66  stm32f10x_gpio.o(.text)
    GPIO_ETH_MediaInterfaceConfig            0x08002497   Thumb Code     8  stm32f10x_gpio.o(.text)
    TIM_DeInit                               0x080024c5   Thumb Code   424  stm32f10x_tim.o(.text)
    TIM_TimeBaseInit                         0x0800266d   Thumb Code   122  stm32f10x_tim.o(.text)
    TIM_OC1Init                              0x080026e7   Thumb Code   132  stm32f10x_tim.o(.text)
    TIM_OC2Init                              0x0800276b   Thumb Code   154  stm32f10x_tim.o(.text)
    TIM_OC3Init                              0x08002805   Thumb Code   150  stm32f10x_tim.o(.text)
    TIM_OC4Init                              0x0800289b   Thumb Code   182  stm32f10x_tim.o(.text)
    TIM_SetIC4Prescaler                      0x08002951   Thumb Code    26  stm32f10x_tim.o(.text)
    TIM_SetIC3Prescaler                      0x080029ed   Thumb Code    18  stm32f10x_tim.o(.text)
    TIM_SetIC2Prescaler                      0x08002a79   Thumb Code    26  stm32f10x_tim.o(.text)
    TIM_SetIC1Prescaler                      0x08002b15   Thumb Code    18  stm32f10x_tim.o(.text)
    TIM_ICInit                               0x08002b93   Thumb Code   150  stm32f10x_tim.o(.text)
    TIM_PWMIConfig                           0x08002c29   Thumb Code   124  stm32f10x_tim.o(.text)
    TIM_BDTRConfig                           0x08002ca5   Thumb Code    32  stm32f10x_tim.o(.text)
    TIM_TimeBaseStructInit                   0x08002cc5   Thumb Code    18  stm32f10x_tim.o(.text)
    TIM_OCStructInit                         0x08002cd7   Thumb Code    20  stm32f10x_tim.o(.text)
    TIM_ICStructInit                         0x08002ceb   Thumb Code    18  stm32f10x_tim.o(.text)
    TIM_BDTRStructInit                       0x08002cfd   Thumb Code    40  stm32f10x_tim.o(.text)
    TIM_Cmd                                  0x08002d25   Thumb Code    24  stm32f10x_tim.o(.text)
    TIM_CtrlPWMOutputs                       0x08002d3d   Thumb Code    30  stm32f10x_tim.o(.text)
    TIM_ITConfig                             0x08002d5b   Thumb Code    18  stm32f10x_tim.o(.text)
    TIM_GenerateEvent                        0x08002d6d   Thumb Code     4  stm32f10x_tim.o(.text)
    TIM_DMAConfig                            0x08002d71   Thumb Code    10  stm32f10x_tim.o(.text)
    TIM_DMACmd                               0x08002d7b   Thumb Code    18  stm32f10x_tim.o(.text)
    TIM_InternalClockConfig                  0x08002d8d   Thumb Code    12  stm32f10x_tim.o(.text)
    TIM_SelectInputTrigger                   0x08002d99   Thumb Code    18  stm32f10x_tim.o(.text)
    TIM_ITRxExternalClockConfig              0x08002dab   Thumb Code    24  stm32f10x_tim.o(.text)
    TIM_TIxExternalClockConfig               0x08002dc3   Thumb Code    62  stm32f10x_tim.o(.text)
    TIM_ETRConfig                            0x08002e01   Thumb Code    28  stm32f10x_tim.o(.text)
    TIM_ETRClockMode1Config                  0x08002e1d   Thumb Code    54  stm32f10x_tim.o(.text)
    TIM_ETRClockMode2Config                  0x08002e53   Thumb Code    32  stm32f10x_tim.o(.text)
    TIM_PrescalerConfig                      0x08002e73   Thumb Code     6  stm32f10x_tim.o(.text)
    TIM_CounterModeConfig                    0x08002e79   Thumb Code    18  stm32f10x_tim.o(.text)
    TIM_EncoderInterfaceConfig               0x08002e8b   Thumb Code    66  stm32f10x_tim.o(.text)
    TIM_ForcedOC1Config                      0x08002ecd   Thumb Code    18  stm32f10x_tim.o(.text)
    TIM_ForcedOC2Config                      0x08002edf   Thumb Code    26  stm32f10x_tim.o(.text)
    TIM_ForcedOC3Config                      0x08002ef9   Thumb Code    18  stm32f10x_tim.o(.text)
    TIM_ForcedOC4Config                      0x08002f0b   Thumb Code    26  stm32f10x_tim.o(.text)
    TIM_ARRPreloadConfig                     0x08002f25   Thumb Code    24  stm32f10x_tim.o(.text)
    TIM_SelectCOM                            0x08002f3d   Thumb Code    24  stm32f10x_tim.o(.text)
    TIM_SelectCCDMA                          0x08002f55   Thumb Code    24  stm32f10x_tim.o(.text)
    TIM_CCPreloadControl                     0x08002f6d   Thumb Code    24  stm32f10x_tim.o(.text)
    TIM_OC1PreloadConfig                     0x08002f85   Thumb Code    18  stm32f10x_tim.o(.text)
    TIM_OC2PreloadConfig                     0x08002f97   Thumb Code    26  stm32f10x_tim.o(.text)
    TIM_OC3PreloadConfig                     0x08002fb1   Thumb Code    18  stm32f10x_tim.o(.text)
    TIM_OC4PreloadConfig                     0x08002fc3   Thumb Code    26  stm32f10x_tim.o(.text)
    TIM_OC1FastConfig                        0x08002fdd   Thumb Code    18  stm32f10x_tim.o(.text)
    TIM_OC2FastConfig                        0x08002fef   Thumb Code    26  stm32f10x_tim.o(.text)
    TIM_OC3FastConfig                        0x08003009   Thumb Code    18  stm32f10x_tim.o(.text)
    TIM_OC4FastConfig                        0x0800301b   Thumb Code    26  stm32f10x_tim.o(.text)
    TIM_ClearOC1Ref                          0x08003035   Thumb Code    18  stm32f10x_tim.o(.text)
    TIM_ClearOC2Ref                          0x08003047   Thumb Code    24  stm32f10x_tim.o(.text)
    TIM_ClearOC3Ref                          0x0800305f   Thumb Code    18  stm32f10x_tim.o(.text)
    TIM_ClearOC4Ref                          0x08003071   Thumb Code    24  stm32f10x_tim.o(.text)
    TIM_OC1PolarityConfig                    0x08003089   Thumb Code    18  stm32f10x_tim.o(.text)
    TIM_OC1NPolarityConfig                   0x0800309b   Thumb Code    18  stm32f10x_tim.o(.text)
    TIM_OC2PolarityConfig                    0x080030ad   Thumb Code    26  stm32f10x_tim.o(.text)
    TIM_OC2NPolarityConfig                   0x080030c7   Thumb Code    26  stm32f10x_tim.o(.text)
    TIM_OC3PolarityConfig                    0x080030e1   Thumb Code    26  stm32f10x_tim.o(.text)
    TIM_OC3NPolarityConfig                   0x080030fb   Thumb Code    26  stm32f10x_tim.o(.text)
    TIM_OC4PolarityConfig                    0x08003115   Thumb Code    26  stm32f10x_tim.o(.text)
    TIM_CCxCmd                               0x0800312f   Thumb Code    30  stm32f10x_tim.o(.text)
    TIM_CCxNCmd                              0x0800314d   Thumb Code    30  stm32f10x_tim.o(.text)
    TIM_SelectOCxM                           0x0800316b   Thumb Code    82  stm32f10x_tim.o(.text)
    TIM_UpdateDisableConfig                  0x080031bd   Thumb Code    24  stm32f10x_tim.o(.text)
    TIM_UpdateRequestConfig                  0x080031d5   Thumb Code    24  stm32f10x_tim.o(.text)
    TIM_SelectHallSensor                     0x080031ed   Thumb Code    24  stm32f10x_tim.o(.text)
    TIM_SelectOnePulseMode                   0x08003205   Thumb Code    18  stm32f10x_tim.o(.text)
    TIM_SelectOutputTrigger                  0x08003217   Thumb Code    18  stm32f10x_tim.o(.text)
    TIM_SelectSlaveMode                      0x08003229   Thumb Code    18  stm32f10x_tim.o(.text)
    TIM_SelectMasterSlaveMode                0x0800323b   Thumb Code    18  stm32f10x_tim.o(.text)
    TIM_SetCounter                           0x0800324d   Thumb Code     4  stm32f10x_tim.o(.text)
    TIM_SetAutoreload                        0x08003251   Thumb Code     4  stm32f10x_tim.o(.text)
    TIM_SetCompare1                          0x08003255   Thumb Code     4  stm32f10x_tim.o(.text)
    TIM_SetCompare2                          0x08003259   Thumb Code     4  stm32f10x_tim.o(.text)
    TIM_SetCompare3                          0x0800325d   Thumb Code     4  stm32f10x_tim.o(.text)
    TIM_SetCompare4                          0x08003261   Thumb Code     6  stm32f10x_tim.o(.text)
    TIM_SetClockDivision                     0x08003267   Thumb Code    18  stm32f10x_tim.o(.text)
    TIM_GetCapture1                          0x08003279   Thumb Code     6  stm32f10x_tim.o(.text)
    TIM_GetCapture2                          0x0800327f   Thumb Code     6  stm32f10x_tim.o(.text)
    TIM_GetCapture3                          0x08003285   Thumb Code     6  stm32f10x_tim.o(.text)
    TIM_GetCapture4                          0x0800328b   Thumb Code     8  stm32f10x_tim.o(.text)
    TIM_GetCounter                           0x08003293   Thumb Code     6  stm32f10x_tim.o(.text)
    TIM_GetPrescaler                         0x08003299   Thumb Code     6  stm32f10x_tim.o(.text)
    TIM_GetFlagStatus                        0x0800329f   Thumb Code    18  stm32f10x_tim.o(.text)
    TIM_ClearFlag                            0x080032b1   Thumb Code     6  stm32f10x_tim.o(.text)
    TIM_GetITStatus                          0x080032b7   Thumb Code    34  stm32f10x_tim.o(.text)
    TIM_ClearITPendingBit                    0x080032d9   Thumb Code     6  stm32f10x_tim.o(.text)
    IWDG_WriteAccessCmd                      0x080032e1   Thumb Code     6  stm32f10x_iwdg.o(.text)
    IWDG_SetPrescaler                        0x080032e7   Thumb Code     6  stm32f10x_iwdg.o(.text)
    IWDG_SetReload                           0x080032ed   Thumb Code     6  stm32f10x_iwdg.o(.text)
    IWDG_ReloadCounter                       0x080032f3   Thumb Code    10  stm32f10x_iwdg.o(.text)
    IWDG_Enable                              0x080032fd   Thumb Code    10  stm32f10x_iwdg.o(.text)
    IWDG_GetFlagStatus                       0x08003307   Thumb Code    20  stm32f10x_iwdg.o(.text)
    Reset_Handler                            0x08003321   Thumb Code     8  startup_stm32f10x_hd.o(.text)
    SysTick_Handler                          0x08003339   Thumb Code     2  startup_stm32f10x_hd.o(.text)
    ADC1_2_IRQHandler                        0x0800333b   Thumb Code     0  startup_stm32f10x_hd.o(.text)
    ADC3_IRQHandler                          0x0800333b   Thumb Code     0  startup_stm32f10x_hd.o(.text)
    CAN1_RX1_IRQHandler                      0x0800333b   Thumb Code     0  startup_stm32f10x_hd.o(.text)
    CAN1_SCE_IRQHandler                      0x0800333b   Thumb Code     0  startup_stm32f10x_hd.o(.text)
    DMA1_Channel1_IRQHandler                 0x0800333b   Thumb Code     0  startup_stm32f10x_hd.o(.text)
    DMA1_Channel2_IRQHandler                 0x0800333b   Thumb Code     0  startup_stm32f10x_hd.o(.text)
    DMA1_Channel3_IRQHandler                 0x0800333b   Thumb Code     0  startup_stm32f10x_hd.o(.text)
    DMA1_Channel4_IRQHandler                 0x0800333b   Thumb Code     0  startup_stm32f10x_hd.o(.text)
    DMA1_Channel5_IRQHandler                 0x0800333b   Thumb Code     0  startup_stm32f10x_hd.o(.text)
    DMA1_Channel6_IRQHandler                 0x0800333b   Thumb Code     0  startup_stm32f10x_hd.o(.text)
    DMA1_Channel7_IRQHandler                 0x0800333b   Thumb Code     0  startup_stm32f10x_hd.o(.text)
    DMA2_Channel1_IRQHandler                 0x0800333b   Thumb Code     0  startup_stm32f10x_hd.o(.text)
    DMA2_Channel2_IRQHandler                 0x0800333b   Thumb Code     0  startup_stm32f10x_hd.o(.text)
    DMA2_Channel3_IRQHandler                 0x0800333b   Thumb Code     0  startup_stm32f10x_hd.o(.text)
    DMA2_Channel4_5_IRQHandler               0x0800333b   Thumb Code     0  startup_stm32f10x_hd.o(.text)
    EXTI0_IRQHandler                         0x0800333b   Thumb Code     0  startup_stm32f10x_hd.o(.text)
    EXTI15_10_IRQHandler                     0x0800333b   Thumb Code     0  startup_stm32f10x_hd.o(.text)
    EXTI1_IRQHandler                         0x0800333b   Thumb Code     0  startup_stm32f10x_hd.o(.text)
    EXTI2_IRQHandler                         0x0800333b   Thumb Code     0  startup_stm32f10x_hd.o(.text)
    EXTI3_IRQHandler                         0x0800333b   Thumb Code     0  startup_stm32f10x_hd.o(.text)
    EXTI4_IRQHandler                         0x0800333b   Thumb Code     0  startup_stm32f10x_hd.o(.text)
    EXTI9_5_IRQHandler                       0x0800333b   Thumb Code     0  startup_stm32f10x_hd.o(.text)
    FLASH_IRQHandler                         0x0800333b   Thumb Code     0  startup_stm32f10x_hd.o(.text)
    FSMC_IRQHandler                          0x0800333b   Thumb Code     0  startup_stm32f10x_hd.o(.text)
    I2C1_ER_IRQHandler                       0x0800333b   Thumb Code     0  startup_stm32f10x_hd.o(.text)
    I2C1_EV_IRQHandler                       0x0800333b   Thumb Code     0  startup_stm32f10x_hd.o(.text)
    I2C2_ER_IRQHandler                       0x0800333b   Thumb Code     0  startup_stm32f10x_hd.o(.text)
    I2C2_EV_IRQHandler                       0x0800333b   Thumb Code     0  startup_stm32f10x_hd.o(.text)
    PVD_IRQHandler                           0x0800333b   Thumb Code     0  startup_stm32f10x_hd.o(.text)
    RCC_IRQHandler                           0x0800333b   Thumb Code     0  startup_stm32f10x_hd.o(.text)
    RTCAlarm_IRQHandler                      0x0800333b   Thumb Code     0  startup_stm32f10x_hd.o(.text)
    RTC_IRQHandler                           0x0800333b   Thumb Code     0  startup_stm32f10x_hd.o(.text)
    SDIO_IRQHandler                          0x0800333b   Thumb Code     0  startup_stm32f10x_hd.o(.text)
    SPI1_IRQHandler                          0x0800333b   Thumb Code     0  startup_stm32f10x_hd.o(.text)
    SPI2_IRQHandler                          0x0800333b   Thumb Code     0  startup_stm32f10x_hd.o(.text)
    SPI3_IRQHandler                          0x0800333b   Thumb Code     0  startup_stm32f10x_hd.o(.text)
    TAMPER_IRQHandler                        0x0800333b   Thumb Code     0  startup_stm32f10x_hd.o(.text)
    TIM1_BRK_IRQHandler                      0x0800333b   Thumb Code     0  startup_stm32f10x_hd.o(.text)
    TIM1_CC_IRQHandler                       0x0800333b   Thumb Code     0  startup_stm32f10x_hd.o(.text)
    TIM1_TRG_COM_IRQHandler                  0x0800333b   Thumb Code     0  startup_stm32f10x_hd.o(.text)
    TIM1_UP_IRQHandler                       0x0800333b   Thumb Code     0  startup_stm32f10x_hd.o(.text)
    TIM3_IRQHandler                          0x0800333b   Thumb Code     0  startup_stm32f10x_hd.o(.text)
    TIM4_IRQHandler                          0x0800333b   Thumb Code     0  startup_stm32f10x_hd.o(.text)
    TIM5_IRQHandler                          0x0800333b   Thumb Code     0  startup_stm32f10x_hd.o(.text)
    TIM6_IRQHandler                          0x0800333b   Thumb Code     0  startup_stm32f10x_hd.o(.text)
    TIM7_IRQHandler                          0x0800333b   Thumb Code     0  startup_stm32f10x_hd.o(.text)
    TIM8_BRK_IRQHandler                      0x0800333b   Thumb Code     0  startup_stm32f10x_hd.o(.text)
    TIM8_CC_IRQHandler                       0x0800333b   Thumb Code     0  startup_stm32f10x_hd.o(.text)
    TIM8_TRG_COM_IRQHandler                  0x0800333b   Thumb Code     0  startup_stm32f10x_hd.o(.text)
    TIM8_UP_IRQHandler                       0x0800333b   Thumb Code     0  startup_stm32f10x_hd.o(.text)
    UART4_IRQHandler                         0x0800333b   Thumb Code     0  startup_stm32f10x_hd.o(.text)
    UART5_IRQHandler                         0x0800333b   Thumb Code     0  startup_stm32f10x_hd.o(.text)
    USART2_IRQHandler                        0x0800333b   Thumb Code     0  startup_stm32f10x_hd.o(.text)
    USART3_IRQHandler                        0x0800333b   Thumb Code     0  startup_stm32f10x_hd.o(.text)
    USBWakeUp_IRQHandler                     0x0800333b   Thumb Code     0  startup_stm32f10x_hd.o(.text)
    USB_HP_CAN1_TX_IRQHandler                0x0800333b   Thumb Code     0  startup_stm32f10x_hd.o(.text)
    USB_LP_CAN1_RX0_IRQHandler               0x0800333b   Thumb Code     0  startup_stm32f10x_hd.o(.text)
    WWDG_IRQHandler                          0x0800333b   Thumb Code     0  startup_stm32f10x_hd.o(.text)
    __aeabi_memcpy                           0x08003345   Thumb Code    36  memcpya.o(.text)
    __aeabi_memcpy4                          0x08003345   Thumb Code     0  memcpya.o(.text)
    __aeabi_memcpy8                          0x08003345   Thumb Code     0  memcpya.o(.text)
    __aeabi_memset                           0x08003369   Thumb Code    14  memseta.o(.text)
    __aeabi_memset4                          0x08003369   Thumb Code     0  memseta.o(.text)
    __aeabi_memset8                          0x08003369   Thumb Code     0  memseta.o(.text)
    __aeabi_memclr                           0x08003377   Thumb Code     4  memseta.o(.text)
    __aeabi_memclr4                          0x08003377   Thumb Code     0  memseta.o(.text)
    __aeabi_memclr8                          0x08003377   Thumb Code     0  memseta.o(.text)
    _memset$wrapper                          0x0800337b   Thumb Code    18  memseta.o(.text)
    strstr                                   0x0800338d   Thumb Code    36  strstr.o(.text)
    strlen                                   0x080033b1   Thumb Code    14  strlen.o(.text)
    strtok                                   0x080033c1   Thumb Code    62  strtok.o(.text)
    __aeabi_uidiv                            0x08003405   Thumb Code     0  uidiv.o(.text)
    __aeabi_uidivmod                         0x08003405   Thumb Code    44  uidiv.o(.text)
    __scatterload                            0x08003431   Thumb Code    28  init.o(.text)
    __scatterload_rt2                        0x08003431   Thumb Code     0  init.o(.text)
    __decompress                             0x08003455   Thumb Code     0  __dczerorl2.o(.text)
    __decompress1                            0x08003455   Thumb Code    86  __dczerorl2.o(.text)
    __0printf$6                              0x080034ad   Thumb Code    22  printf6.o(i.__0printf$6)
    __1printf$6                              0x080034ad   Thumb Code     0  printf6.o(i.__0printf$6)
    __2printf                                0x080034ad   Thumb Code     0  printf6.o(i.__0printf$6)
    __0sprintf$6                             0x080034cd   Thumb Code    34  printf6.o(i.__0sprintf$6)
    __1sprintf$6                             0x080034cd   Thumb Code     0  printf6.o(i.__0sprintf$6)
    __2sprintf                               0x080034cd   Thumb Code     0  printf6.o(i.__0sprintf$6)
    __scatterload_copy                       0x080034f5   Thumb Code    14  handlers.o(i.__scatterload_copy)
    __scatterload_null                       0x08003503   Thumb Code     2  handlers.o(i.__scatterload_null)
    __scatterload_zeroinit                   0x08003505   Thumb Code    14  handlers.o(i.__scatterload_zeroinit)
    free                                     0x08003861   Thumb Code    76  malloc.o(i.free)
    malloc                                   0x080038b1   Thumb Code    92  malloc.o(i.malloc)
    F6x8                                     0x0800391c   Data         552  oled.o(.constdata)
    F8X16                                    0x08003b44   Data        1520  oled.o(.constdata)
    Region$$Table$$Base                      0x08004134   Number         0  anon$$obj.o(Region$$Table)
    Region$$Table$$Limit                     0x08004154   Number         0  anon$$obj.o(Region$$Table)
    MainLen                                  0x20000000   Data           4  main.o(.data)
    MainString                               0x20000004   Data           4  main.o(.data)
    RendTHCnt                                0x20000008   Data           4  main.o(.data)
    Usart1ReadCnt                            0x20000010   Data           4  usart.o(.data)
    Usart1ReadCntCopy                        0x20000014   Data           4  usart.o(.data)
    Usart1IdleCnt                            0x20000018   Data           4  usart.o(.data)
    Usart1IdleTime                           0x2000001c   Data           4  usart.o(.data)
    Usart1ReadFlage                          0x20000020   Data           1  usart.o(.data)
    ConfigModuleBlockCnt                     0x20000024   Data           4  configmoduleblock.o(.data)
    ConfigModuleBlockFlage                   0x20000028   Data           4  configmoduleblock.o(.data)
    ConfigModuleBlockDelay                   0x2000002c   Data           4  configmoduleblock.o(.data)
    StringStr                                0x20000030   Data           4  cstring.o(.data)
    StrStop                                  0x20000034   Data           4  cstring.o(.data)
    StringValue                              0x20000038   Data           1  cstring.o(.data)
    DHT11Data                                0x20000039   Data           4  dht11.o(.data)
    GatherRrrorCnt                           0x2000003d   Data           1  dht11.o(.data)
    LastT                                    0x2000003e   Data           1  dht11.o(.data)
    LastR                                    0x2000003f   Data           1  dht11.o(.data)
    Hzk                                      0x20000040   Data         256  oled.o(.data)
    SmartConfigFlage                         0x20000140   Data           1  config8266.o(.data)
    SmartConfigCnt                           0x20000144   Data           4  config8266.o(.data)
    SmartConfigSuccess                       0x20000148   Data           1  config8266.o(.data)
    Config8266Delay                          0x2000014c   Data           4  config8266.o(.data)
    Config8266LedDelay                       0x20000150   Data           4  config8266.o(.data)
    SystemCoreClock                          0x20000154   Data           4  system_stm32f10x.o(.data)
    AHBPrescTable                            0x20000158   Data          16  system_stm32f10x.o(.data)
    __stdout                                 0x20000180   Data           4  stdout.o(.data)
    __microlib_freelist                      0x20000184   Data           4  mvars.o(.data)
    __microlib_freelist_initialised          0x20000188   Data           4  mvars.o(.data)
    MainBuffer                               0x2000018c   Data         200  main.o(.bss)
    Usart1ReadBuff                           0x20000254   Data         150  usart.o(.bss)
    KeySmartConfig                           0x200002ec   Data          28  key.o(.bss)
    ThisSSID                                 0x20000308   Data          32  config8266.o(.bss)
    ThisPWD                                  0x20000328   Data          64  config8266.o(.bss)
    ThisMAC                                  0x20000368   Data          18  config8266.o(.bss)
    ThisIP                                   0x2000037a   Data          21  config8266.o(.bss)
    __heap_base                              0x20000390   Data           0  startup_stm32f10x_hd.o(HEAP)
    __heap_limit                             0x20000590   Data           0  startup_stm32f10x_hd.o(HEAP)
    __initial_sp                             0x20000990   Data           0  startup_stm32f10x_hd.o(STACK)



==============================================================================

Memory Map of the image

  Image Entry point : 0x08000131

  Load Region LR_IROM1 (Base: 0x08000000, Size: 0x000042e0, Max: 0x00010000, ABSOLUTE, COMPRESSED[0x000041e0])

    Execution Region ER_IROM1 (Base: 0x08000000, Size: 0x00004154, Max: 0x00010000, ABSOLUTE)

    Base Addr    Size         Type   Attr      Idx    E Section Name        Object

    0x08000000   0x00000130   Data   RO          724    RESET               startup_stm32f10x_hd.o
    0x08000130   0x00000000   Code   RO          729  * .ARM.Collect$$$$00000000  mc_w.l(entry.o)
    0x08000130   0x00000004   Code   RO         1037    .ARM.Collect$$$$00000001  mc_w.l(entry2.o)
    0x08000134   0x00000004   Code   RO         1040    .ARM.Collect$$$$00000004  mc_w.l(entry5.o)
    0x08000138   0x00000000   Code   RO         1042    .ARM.Collect$$$$00000008  mc_w.l(entry7b.o)
    0x08000138   0x00000000   Code   RO         1044    .ARM.Collect$$$$0000000A  mc_w.l(entry8b.o)
    0x08000138   0x00000008   Code   RO         1045    .ARM.Collect$$$$0000000B  mc_w.l(entry9a.o)
    0x08000140   0x00000000   Code   RO         1047    .ARM.Collect$$$$0000000D  mc_w.l(entry10a.o)
    0x08000140   0x00000000   Code   RO         1049    .ARM.Collect$$$$0000000F  mc_w.l(entry11a.o)
    0x08000140   0x00000004   Code   RO         1038    .ARM.Collect$$$$00002712  mc_w.l(entry2.o)
    0x08000144   0x00000044   Code   RO            3    .text               stm32f10x_it.o
    0x08000188   0x00000104   Code   RO          121    .text               main.o
    0x0800028c   0x00000070   Code   RO          209    .text               system.o
    0x080002fc   0x000000d4   Code   RO          233    .text               delay.o
    0x080003d0   0x00000154   Code   RO          258    .text               usart.o
    0x08000524   0x00000080   Code   RO          285    .text               gpio.o
    0x080005a4   0x000000b8   Code   RO          328    .text               configmoduleblock.o
    0x0800065c   0x0000013c   Code   RO          354    .text               cstring.o
    0x08000798   0x000001d0   Code   RO          380    .text               dht11.o
    0x08000968   0x000005d0   Code   RO          406    .text               oled.o
    0x08000f38   0x00000068   Code   RO          436    .text               key.o
    0x08000fa0   0x00000600   Code   RO          462    .text               config8266.o
    0x080015a0   0x0000002c   Code   RO          489    .text               iwdg.o
    0x080015cc   0x00000134   Code   RO          512    .text               timer.o
    0x08001700   0x000001e0   Code   RO          543    .text               system_stm32f10x.o
    0x080018e0   0x000000dc   Code   RO          582    .text               misc.o
    0x080019bc   0x000003a4   Code   RO          602    .text               stm32f10x_rcc.o
    0x08001d60   0x00000408   Code   RO          624    .text               stm32f10x_usart.o
    0x08002168   0x0000035c   Code   RO          664    .text               stm32f10x_gpio.o
    0x080024c4   0x00000e1a   Code   RO          684    .text               stm32f10x_tim.o
    0x080032de   0x00000002   PAD
    0x080032e0   0x00000040   Code   RO          704    .text               stm32f10x_iwdg.o
    0x08003320   0x00000024   Code   RO          725    .text               startup_stm32f10x_hd.o
    0x08003344   0x00000024   Code   RO          732    .text               mc_w.l(memcpya.o)
    0x08003368   0x00000024   Code   RO          734    .text               mc_w.l(memseta.o)
    0x0800338c   0x00000024   Code   RO          736    .text               mc_w.l(strstr.o)
    0x080033b0   0x0000000e   Code   RO          738    .text               mc_w.l(strlen.o)
    0x080033be   0x00000002   PAD
    0x080033c0   0x00000044   Code   RO          740    .text               mc_w.l(strtok.o)
    0x08003404   0x0000002c   Code   RO         1052    .text               mc_w.l(uidiv.o)
    0x08003430   0x00000024   Code   RO         1069    .text               mc_w.l(init.o)
    0x08003454   0x00000056   Code   RO         1087    .text               mc_w.l(__dczerorl2.o)
    0x080034aa   0x00000002   PAD
    0x080034ac   0x00000020   Code   RO          903    i.__0printf$6       mc_w.l(printf6.o)
    0x080034cc   0x00000028   Code   RO          905    i.__0sprintf$6      mc_w.l(printf6.o)
    0x080034f4   0x0000000e   Code   RO         1081    i.__scatterload_copy  mc_w.l(handlers.o)
    0x08003502   0x00000002   Code   RO         1082    i.__scatterload_null  mc_w.l(handlers.o)
    0x08003504   0x0000000e   Code   RO         1083    i.__scatterload_zeroinit  mc_w.l(handlers.o)
    0x08003512   0x00000002   PAD
    0x08003514   0x000002f0   Code   RO          910    i._printf_core      mc_w.l(printf6.o)
    0x08003804   0x00000024   Code   RO          911    i._printf_post_padding  mc_w.l(printf6.o)
    0x08003828   0x0000002e   Code   RO          912    i._printf_pre_padding  mc_w.l(printf6.o)
    0x08003856   0x0000000a   Code   RO          914    i._sputc            mc_w.l(printf6.o)
    0x08003860   0x00000050   Code   RO         1009    i.free              mc_w.l(malloc.o)
    0x080038b0   0x0000006c   Code   RO         1010    i.malloc            mc_w.l(malloc.o)
    0x0800391c   0x00000818   Data   RO          407    .constdata          oled.o
    0x08004134   0x00000020   Data   RO         1079    Region$$Table       anon$$obj.o


    Execution Region RW_IRAM1 (Base: 0x20000000, Size: 0x00000990, Max: 0x00005000, ABSOLUTE, COMPRESSED[0x0000008c])

    Base Addr    Size         Type   Attr      Idx    E Section Name        Object

    0x20000000   0x0000000c   Data   RW          123    .data               main.o
    0x2000000c   0x00000004   Data   RW          234    .data               delay.o
    0x20000010   0x00000012   Data   RW          260    .data               usart.o
    0x20000022   0x00000002   PAD
    0x20000024   0x0000000c   Data   RW          329    .data               configmoduleblock.o
    0x20000030   0x00000009   Data   RW          355    .data               cstring.o
    0x20000039   0x00000007   Data   RW          381    .data               dht11.o
    0x20000040   0x00000100   Data   RW          408    .data               oled.o
    0x20000140   0x00000014   Data   RW          464    .data               config8266.o
    0x20000154   0x00000014   Data   RW          544    .data               system_stm32f10x.o
    0x20000168   0x00000014   Data   RW          603    .data               stm32f10x_rcc.o
    0x2000017c   0x00000004   Data   RW          741    .data               mc_w.l(strtok.o)
    0x20000180   0x00000004   Data   RW         1051    .data               mc_w.l(stdout.o)
    0x20000184   0x00000004   Data   RW         1056    .data               mc_w.l(mvars.o)
    0x20000188   0x00000004   Data   RW         1057    .data               mc_w.l(mvars.o)
    0x2000018c   0x000000c8   Zero   RW          122    .bss                main.o
    0x20000254   0x00000096   Zero   RW          259    .bss                usart.o
    0x200002ea   0x00000002   PAD
    0x200002ec   0x0000001c   Zero   RW          437    .bss                key.o
    0x20000308   0x00000087   Zero   RW          463    .bss                config8266.o
    0x2000038f   0x00000001   PAD
    0x20000390   0x00000200   Zero   RW          723    HEAP                startup_stm32f10x_hd.o
    0x20000590   0x00000400   Zero   RW          722    STACK               startup_stm32f10x_hd.o


==============================================================================

Image component sizes


      Code (inc. data)   RO Data    RW Data    ZI Data      Debug   Object Name

      1536        528          0         20        135       2301   config8266.o
       184         24          0         12          0       1081   configmoduleblock.o
       316         14          0          9          0       2109   cstring.o
       212         18          0          4          0        938   delay.o
       464         26          0          7          0       2042   dht11.o
       128          8          0          0          0        491   gpio.o
        44          0          0          0          0        606   iwdg.o
       104          8          0          0         28        914   key.o
       260         28          0         12        200       2357   main.o
       220         22          0          0          0       1721   misc.o
      1488         24       2072        256          0       6311   oled.o
        36          8        304          0       1536        776   startup_stm32f10x_hd.o
       860         38          0          0          0       5569   stm32f10x_gpio.o
        68          8          0          0          0     274713   stm32f10x_it.o
        64          6          0          0          0       1233   stm32f10x_iwdg.o
       932         36          0         20          0       8712   stm32f10x_rcc.o
      3610         88          0          0          0      22056   stm32f10x_tim.o
      1032         22          0          0          0       8292   stm32f10x_usart.o
       112          8          0          0          0        715   system.o
       480         38          0         20          0       1719   system_stm32f10x.o
       308         44          0          0          0        716   timer.o
       340         24          0         18        150       2187   usart.o

    ----------------------------------------------------------------------
     12800       1020       2408        380       2052     347559   Object Totals
         0          0         32          0          0          0   (incl. Generated)
         2          0          0          2          3          0   (incl. Padding)

    ----------------------------------------------------------------------

      Code (inc. data)   RO Data    RW Data    ZI Data      Debug   Library Member Name

        86          0          0          0          0          0   __dczerorl2.o
         0          0          0          0          0          0   entry.o
         0          0          0          0          0          0   entry10a.o
         0          0          0          0          0          0   entry11a.o
         8          4          0          0          0          0   entry2.o
         4          0          0          0          0          0   entry5.o
         0          0          0          0          0          0   entry7b.o
         0          0          0          0          0          0   entry8b.o
         8          4          0          0          0          0   entry9a.o
        30          0          0          0          0          0   handlers.o
        36          8          0          0          0         68   init.o
       188         20          0          0          0        160   malloc.o
        36          0          0          0          0         68   memcpya.o
        36          0          0          0          0        108   memseta.o
         0          0          0          8          0          0   mvars.o
       916         20          0          0          0        504   printf6.o
         0          0          0          4          0          0   stdout.o
        14          0          0          0          0         68   strlen.o
        36          0          0          0          0         80   strstr.o
        68          6          0          4          0         80   strtok.o
        44          0          0          0          0         80   uidiv.o

    ----------------------------------------------------------------------
      1516         62          0         16          0       1216   Library Totals
         6          0          0          0          0          0   (incl. Padding)

    ----------------------------------------------------------------------

      Code (inc. data)   RO Data    RW Data    ZI Data      Debug   Library Name

      1510         62          0         16          0       1216   mc_w.l

    ----------------------------------------------------------------------
      1516         62          0         16          0       1216   Library Totals

    ----------------------------------------------------------------------

==============================================================================


      Code (inc. data)   RO Data    RW Data    ZI Data      Debug   

     14316       1082       2408        396       2052     346771   Grand Totals
     14316       1082       2408        140       2052     346771   ELF Image Totals (compressed)
     14316       1082       2408        140          0          0   ROM Totals

==============================================================================

    Total RO  Size (Code + RO Data)                16724 (  16.33kB)
    Total RW  Size (RW Data + ZI Data)              2448 (   2.39kB)
    Total ROM Size (Code + RO Data + RW Data)      16864 (  16.47kB)

==============================================================================

