:020000040800F2
:10000000900900202133000845010008470100083D
:100010006F0100087301000877010008000000006C
:100020000000000000000000000000007B0100084C
:100030007D010008000000007F010008393300083E
:100040003B3300083B3300083B3300083B330008D8
:100050003B3300083B3300083B3300083B330008C8
:100060003B3300083B3300083B3300083B330008B8
:100070003B3300083B3300083B3300083B330008A8
:100080003B3300083B3300083B3300083B33000898
:100090003B3300083B3300083B3300083B33000888
:1000A0003B3300083B3300083B3300083B33000878
:1000B0001D1600083B3300083B3300083B330008A3
:1000C0003B3300083B3300083B3300083B33000858
:1000D0003B330008990400083B3300083B33000819
:1000E0003B3300083B3300083B3300083B33000838
:1000F0003B3300083B3300083B3300083B33000828
:100100003B3300083B3300083B3300083B33000817
:100110003B3300083B3300083B3300083B33000807
:100120003B3300083B3300083B3300083B330008F7
:10013000DFF80CD003F07CF9004800478901000883
:1001400090090020704711E071B600BFBFF34F8FD8
:100150000B48006800F4E0600A490843001D0849A4
:100160000860BFF34F8F00BF00BFFEE7ECE700BFA2
:10017000FEE700BFFEE700BFFEE77047704770472D
:100180000CED00E00000FA0508B500F07FF84FF430
:10019000E13000F01DF900F0C5F900F0AFF801F012
:1001A00015FA4FF44371062001F0FAF900F038FE19
:1001B00000F0CCFC00221146242000F0BEFD0122FC
:1001C0000021362000F0B9FD02220021482000F075
:1001D000B4FD102326A20321192000F091FD102365
:1001E00024A20521192000F08BFD03221146502086
:1001F00000F0A3FD102320A20521502000F080FD77
:1002000035E001F0DFF900F097FE1C48C0680128D6
:1002100010D11A48406940F6B83188420ADB002004
:100220001649C8601648007820B9012014490870A2
:1002300000F0C3FE1348006841F28831884216D3AB
:1002400000F013FB00200F490860102000900E48BA
:10025000027802230321372000F00EFD10200090C9
:100260000948827802230521372000F005FDC8E700
:1002700054203A0048203A0020250000EC020020DB
:1002800040010020080000203900002008B54FF48C
:10029000A06001F025FB25208DF8000000208DF8DE
:1002A00001008DF8020001208DF80300684601F07E
:1002B0001CFB1C208DF8000001208DF8030003209A
:1002C0008DF801008DF80200684601F00EFB08BDB4
:1002D00071B600BFBFF34F8F0648006800F4E060BE
:1002E00005490843001D03490860BFF34F8F00BF55
:1002F00000BFFEE70CED00E00000FA0510B56FF05E
:10030000040001F03CFB2E4800682E49B0FBF1F0E0
:100310002D4908700846007800EB4001C1EBC01081
:100320004FF6FF7101EAC0002849088010BD014660
:10033000254A12784A434FF0E0235A6100229A611D
:100340001A46126942F001021A6100BF4FF0E02222
:10035000106900F001021AB100F48032002AF5D0D1
:100360004FF0E022126922F001024FF0E0231A61FF
:1003700000229A6170470146144A12884A434FF09E
:10038000E0235A6100229A611A46126942F0010282
:100390001A6100BF4FF0E022106900F001021AB1AB
:1003A00000F48032002AF5D04FF0E022126922F0EA
:1003B00001024FF0E0231A6100229A6170470000A9
:1003C0005401002000127A000C0000200E000020D2
:1003D00010B586B00446012144F2040001F05CFC33
:1003E0004FF40070ADF8140003208DF816001820AB
:1003F0008DF8170005A9454801F016FF4FF48060FD
:10040000ADF8140004208DF8170005A93F4801F04D
:100410000BFF01940020ADF80800ADF80A00ADF81C
:100420000C00ADF810000C20ADF80E0001A9384802
:1004300001F0D9FC012240F22551354801F06BFD55
:100440000121334801F05BFD06B010BD70B50446D4
:100450000D460BE014F8011B2D4801F0BDFD00BF57
:1004600080212B4801F026FE0028F9D02800A5F1B4
:100470000105EFD16420FFF77EFF70BD10B5044683
:100480002146234801F0A8FD00BF8021204801F04B
:1004900011FE0028F9D010BD10B540F225511C48BE
:1004A00001F01EFEA8B11A4801F09AFDC4B2194825
:1004B00019490968445418480068401C16490860E6
:1004C000084600688C2801D90020086000201349E4
:1004D000086010BD70B504460E46E5B210480078BD
:1004E00038B901200E49087040F22661084801F031
:1004F00021FEE1B2064801F06FFD00BF4021044833
:1005000001F0D8FD0028F9D0204670BD0008014058
:100510000038014054020020100000201800002084
:100520002100002008B501217D2001F0B5FB4FF42A
:100530000050ADF8000010208DF8030003208DF866
:1005400002006946154801F06FFE0620ADF8000074
:1005500010208DF8030003208DF802006946104832
:1005600001F062FE2020ADF8000048208DF8030065
:1005700003208DF802006946094801F055FE4FF44A
:100580000070ADF8000014208DF8030003208DF8F2
:1005900002006946024801F047FE08BD0010014014
:1005A000000C014070B505460E4614460020254952
:1005B000086001202449086043E001F003F8224864
:1005C000006801280DD100202049086096212048AC
:1005D00002F0D1FE00201C49086029461DA002F04F
:1005E00065FF1D480078012812D100201A490870C3
:1005F00036B13146164802F0C9FE08B1012070BD7F
:1006000034B12146124802F0C1FE08B10120F6E7DC
:100610000E48006841F2883188420ADB00200B490D
:10062000086001200849086006480068401C054928
:10063000086004480068032803DB002001490860C3
:10064000DDE7BAE724000020280000202C0000206D
:1006500054020020257300002000002010B54B48F4
:10066000006803F0FDF810BD2DE9F04781460F4604
:100670009046002400260025384602F099FEC5B2B7
:100680003946484602F082FE04460CB36119481C04
:10069000414602F07BFE0646C6B16119711A481C3C
:1006A00003F006F9394908606019301A411C3748CF
:1006B000006802F060FE6019321A61193348006860
:1006C00002F040FE31480068BDE8F0870020FBE7FB
:1006D0000020F9E72E4800782E4909680870704715
:1006E0002DE9F04180460D46164600240027284695
:1006F00002F05EFEC7B22946404602F047FE0446BD
:10070000BCB1E119481C314602F040FE21490860A5
:100710000846006858B10846006800781C4908700F
:1007200000201C4909680870E019BDE8F08100202C
:10073000FBE70020F9E72DE9F04707460E4614468F
:1007400098464FF000091FB1384602F031FE08B953
:10075000BDE8F0871EB1304602F02AFE00B9F7E787
:100760003146384602F02CFE054608E004B120C4AC
:1007700009F101093146002002F022FE0546002D54
:10078000F4D1C8F8009000BFE2E70000300000207C
:10079000380000203400002010B500206C490860AB
:1007A0001420FFF7E8FD01206A49C1F8A4011E20CA
:1007B000FFF7BDFD10BD10B5002404E0601CC4B2FD
:1007C0000120FFF7B4FD62488038006808B1642C4E
:1007D000F4DB642C01DB012010BD002404E0601C6C
:1007E000C4B20120FFF7A3FD59488038006808B95A
:1007F000642CF4DB642C01DB0120EDE70020EBE747
:1008000010B5002404E0601CC4B20120FFF78FFD86
:100810004F488038006808B1642CF4DB002404E001
:10082000601CC4B20120FFF782FD4948803800688F
:1008300008B9642CF4DB2320FFF779FD44488038A5
:10084000006808B1012010BD0020FCE770B500244D
:10085000002506E06006040EFFF7D2FF0443681C83
:10086000C5B2082DF6DB204670BD1CB5FFF794FF1E
:10087000FFF7A1FF002869D1002405E0FFF7E6FF9C
:100880000DF80400601CC4B2052CF7DB9DF80000D5
:100890009DF8011008449DF8021008449DF80310CB
:1008A00008449DF80410884215D19DF800002A499B
:1008B00008709DF8010048709DF8020088709DF84E
:1008C0000300C870084680782449087022480078E0
:1008D000234908702DE0204A9278204B1B78991A02
:1008E000002901DB0A4600E04A42032A1CDA1A4AC0
:1008F00012781B4B1B78981A002801DB024600E097
:100900004242032A10DA9DF80000134908709DF84E
:10091000010048709DF8020088709DF80300C870BF
:1009200000201049087004E00E480078401C0D4972
:1009300008700C480078052808DD00200949087077
:10094000FF200549087048708870C8701CBD000001
:10095000A481214200802142390000203E00002075
:100960003F0000203D00002010B54021F94801F073
:1009700008FD8021F74801F004FD8021F54801F0D1
:1009800002FD4021F34801F0FEFC10BD10B54021EE
:10099000F04801F0F6FC8021EE4801F0F4FC8021E3
:1009A000EC4801F0EEFC10BD10B54021E94801F023
:1009B000E8FC4021E74801F0E6FC10BD2DE9F041DC
:1009C00005462C464021E34801F0DDFC002619E0F5
:1009D000274607F08007802F04D18021DD4801F0F1
:1009E000D0FC03E08021DB4801F0CDFC6006040E62
:1009F0004021D84801F0C5FC4021D64801F0C3FC95
:100A0000701CC6B2082EE3DBBDE8F08110B50446C9
:100A1000FFF7AAFF7820FFF7D1FFFFF7C5FF0020FF
:100A2000FFF7CCFFFFF7C0FF2046FFF7C7FFFFF738
:100A3000BBFFFFF7ABFF10BD10B50446FFF794FFF7
:100A40007820FFF7BBFFFFF7AFFF4020FFF7B6FFAF
:100A5000FFF7AAFF2046FFF7B1FFFFF7A5FFFFF75B
:100A600095FF10BD70B504460D461DB1E0B2FFF70D
:100A7000E3FF02E0E0B2FFF7C9FF70BD70B50646C4
:100A8000002418E004F1B0000021FFF7EBFF002183
:100A90000846FFF7E7FF00211020FFF7E3FF0025DE
:100AA00005E001213046FFF7DDFF681CC5B2802D4F
:100AB000F7DB601CC4B2082CE4DB70BD06E041F635
:100AC000650100E0491E0029FCD1401E0028F6D136
:100AD0007047014605E0002001E0421CD0B27B28AF
:100AE000FBDB0A00A1F10101F5D1704770B50446A6
:100AF0000D4605F1B0000021FFF7B4FF102141EAD7
:100B000014100021FFF7AEFF04F00F000021FFF7E3
:100B1000A9FF70BD10B500218D20FFF7A3FF0021B4
:100B20001420FFF79FFF0021AF20FFF79BFF10BDB0
:100B300010B500218D20FFF795FF00211020FFF751
:100B400091FF0021AE20FFF78DFF10BD70B500248E
:100B500018E004F1B0000021FFF784FF00210846EF
:100B6000FFF780FF00211020FFF77CFF002505E044
:100B700001210020FFF776FF681CC5B2802DF7DB4E
:100B8000601CC4B2082CE4DB70BD70B5002418E012
:100B900004F1B0000021FFF765FF00210846FFF7D0
:100BA00061FF00211020FFF75DFF002505E0012116
:100BB0000846FFF757FF681CC5B2802DF7DB601CA5
:100BC000C4B2082CE4DB70BD2DE9F04707460E46A1
:100BD0009046994600250024A8F12000C5B27F2F39
:100BE00002DD0027B01CC6B2B9F1100F24D1314686
:100BF0003846FFF77BFF002408E004EB0511564A56
:100C0000505C0121FFF72EFF601CC4B2082CF4DBFE
:100C1000701CC1B23846FFF769FF002409E004EBFD
:100C2000051108314C4A505C0121FFF71BFF601C85
:100C3000C4B2082CF3DB12E031463846FFF756FF0A
:100C400000240AE005EB4501444A02EB4101085D3E
:100C50000121FFF707FF601CC4B2062CF2DBBDE8E0
:100C6000F08710B50246012000E050430B00A1F1CF
:100C70000104E1B2F9D110BD2DE9FF5F07469146AD
:100C80001E460E9D4FF0000A002435E0301B401E2A
:100C9000C1B20A20FFF7E5FFB9FBF0F00A21B0FB73
:100CA000F1F201FB1208BAF1000F14D1701EA0423C
:100CB00011DDB8F1000F0CD1AB4605EBDB7149102B
:100CC00001FB0471C8B22B4620220199FFF77CFF7B
:100CD00010E04FF0010AAB4605EBDB71491001FB58
:100CE0000471C8B208F13001CAB22B460199FFF76E
:100CF0006BFF00BF601CC4B2B442C7DBBDE8FF9FFE
:100D00002DE9F04104460F461546984600260FE0AF
:100D1000AA5D434639462046FFF756FF04F1080016
:100D2000C4B2782C02DD0024B81CC7B2701CC6B255
:100D3000A85D0028ECD1BDE8F0812DE9F0418046A6
:100D40000E461546002731464046FFF7CFFE0024E9
:100D500011E00000000C0140443B00081C39000871
:100D6000734A02EB8511085D0121FFF77BFE781CB9
:100D7000C7B2601CC4B2102CF2DB701CC1B240467A
:100D8000FFF7B4FE00240CE06900491C684A02EB3E
:100D90004111085D0121FFF765FE781CC7B2601C98
:100DA000C4B2102CF0DBBDE8F0812DE9F05F0646FF
:100DB0000F4690461C46DDF828A04FF0000BE117C7
:100DC00004EB5171C910A4EBC10131B92046E11700
:100DD00004EB5171C1F3C70506E02046E11704EBAF
:100DE0005171C910491CCDB23D4615E02946304627
:100DF000FFF77CFEB1460BE059460BF1010B1AF8E8
:100E000001000121FFF72EFE09F1010000F0FF09AA
:100E1000C145F1DB681CC5B2A542E7DBBDE8F09F28
:100E200008B50121082000F037FFC020ADF8000010
:100E300010208DF8030003208DF8020069463D481C
:100E400001F0F2F9C0213B4801F09BFA4FF44870E1
:100E5000FFF791FA0021AE20FFF704FE00210846BB
:100E6000FFF700FE00211020FFF7FCFD00214020CD
:100E7000FFF7F8FD0021B020FFF7F4FD00218120ED
:100E8000FFF7F0FD0021FF20FFF7ECFD0021A1207E
:100E9000FFF7E8FD0021A620FFF7E4FD0021A820D0
:100EA000FFF7E0FD00213F20FFF7DCFD0021C82017
:100EB000FFF7D8FD0021D320FFF7D4FD002108461D
:100EC000FFF7D0FD0021D520FFF7CCFD00218020C9
:100ED000FFF7C8FD0021D820FFF7C4FD0021052041
:100EE000FFF7C0FD0021D920FFF7BCFD0021F12054
:100EF000FFF7B8FD0021DA20FFF7B4FD0021122032
:100F0000FFF7B0FD0021DB20FFF7ACFD0021302012
:100F1000FFF7A8FD00218D20FFF7A4FD002114207C
:100F2000FFF7A0FD0021AF20FFF79CFD08BD0000EA
:100F300040000020000C014017480068A8B917487D
:100F4000406840BB15480068401C144908600846CA
:100F50000068B0F5FA7F1EDB002008608860012081
:100F60004860C8600020086115E00C480068401C1B
:100F70000A49086008460068B0F5FA6F0BDD0020EA
:100F8000086008464068012805D188600020486054
:100F9000C86001200861704714812142EC020020E2
:100FA00010B50020F44908604FF4FA70FFF7E3F938
:100FB0000120F249C1F8880110BD70B50025002458
:100FC0000120EF4908600020EE490870FFF7E8FFB4
:100FD0000022EDA1ECA0FFF7E5FA002877D000226F
:100FE000EAA1ECA0FFF7DEFA0028F7D00022EDA17D
:100FF000EDA0FFF7D7FA0028F0D00022EFA1F1A072
:10100000FFF7D0FA0028E9D0F3A2F4A1F648FFF7E1
:1010100067FBF64908600846006802F0C9F9112824
:101020000AD11221F24802F0A6F91122EF48016814
:10103000EF4802F087F900E009E1FFF74BFB0022DF
:10104000D8A1ECA0FFF7AEFA0028C7D00022D5A1A6
:10105000F5A0FFF7A7FA0028C0D00020FE490860DD
:101060003FE000F0AFFAFD480078012832D10020BF
:10107000FA490870D8A2FAA1DB48FFF731FBDB4937
:1010800008600846006820B32021F84802F073F990
:10109000D648F7A10268F54802F018FAFFF71AFBE4
:1010A000CDA2F4A1D048FFF71BFBD0490860084649
:1010B000006868B14021F14802F05DF9CB48ECA12D
:1010C0000268EE4802F002FAFFF704FB0AE0BDE016
:1010D000BDE0BCE0E04800684EF66021884200D9DF
:1010E000B5E0BEE700BF0022AEA1E5A0FFF75AFAC7
:1010F000002888D0C821E74802F03DF9DF4BDB4AE1
:10110000E5A1E44802F0E2F90022EAA1E148FFF794
:1011100049FA002899D0012401209A490870002238
:10112000E7A1EBA0FFF73EFA00288ED0AAA2EDA11E
:10113000AD48FFF7D5FAAD490860084600680028B9
:1011400076D01521EA4802F016F9A848006802F0A6
:101150002FF906463246A5480168E54802F0F2F844
:10116000E44B0022E4A1A1480068FFF7E4FAE1485B
:101170000068042866D1DE4B9D4AE0A1C54802F014
:10118000A5F9DC4908600846E2A10268C14802F0FE
:101190009DF9D84908600022E2A1BE48FFF702FA93
:1011A000D8B1C821BB4802F0E6F8D14B904AD3A190
:1011B000B84802F08BF9CF490860B649ACA002F0FC
:1011C00075F90020A449086001E000F0FBF9A2488D
:1011D0000068B0F5FA6FF8D300E038E0C44B844AF9
:1011E000C6A1AC4802F072F9C24908600846C9A11C
:1011F0000268A84802F06AF9BE4908600022C9A145
:10120000A448FFF7CFF9E0B1C821A24802F0B3F833
:10121000B74B774AB9A19F4802F058F9B549086021
:101220009C4993A002F042F900208B49086002E03B
:1012300009E000F0C7F988480068B0F5FA6FF8D304
:1012400002E004E003E002E0FFF744FA00BF0022FE
:1012500054A1B5A0FFF7A6F9FFF7A2FE0020B749F9
:101260000870E0B270BD70B500240025012044492B
:101270000860002043490870FFF792FE002242A157
:1012800041A0FFF78FF9002859D000223FA141A0CB
:10129000FFF788F9002852D0002242A1A2A0FFF750
:1012A00081F900284BD000223EA175A0FFF77AF902
:1012B000002844D000223BA1A1A0FFF773F9002829
:1012C0003DD00020644908601DE000F07BF96348D0
:1012D0000078012810D10020604908709DA1424883
:1012E00002F054F820B973A13F4802F04FF818B14A
:1012F00001202349086007E05748006847F2305151
:10130000884200D900E0E0E700BF5348006847F298
:101310003051884203D90020194908600FE00125A7
:101320000120184908704C48006841F2883144187F
:1013300001E000F047F948480068A042F9D3FFF700
:101340002FFE00207D490870E8B270BD10B5FFF790
:1013500027FE00220CA10CA0FFF724F900220BA10C
:101360000CA0FFF71FF900220EA16FA0FFF71AF9DA
:1013700000220CA142A0F5E0888121420080214298
:10138000B4012242480100202B2B2B0072656164BE
:101390007900000041542B524553544F52450D0AD9
:1013A000000000004F4B000041542B43574D4F4469
:1013B000455F4445463D330D0A0000004D41435F03
:1013C0004355520041542B4349505354414D4143DE
:1013D0005F4355523F0D0A00220000004D41435F1C
:1013E0004355523A2200000054020020040000201D
:1013F0006803002041542B43575341505F444546F6
:101400003D22776966695F383236365F62696E649D
:10141000222C223131323233333434222C31312CEC
:10142000342C340D0A00000041542B4349505354CE
:101430004152543D22554450222C223139322E3112
:1014400036382E342E32222C353535352C3535357F
:10145000362C320D0A00000044010020200000203C
:101460002273736964223A220000000008030020FE
:101470002573000022707764223A2200280300209E
:1014800041542B43574155544F434F4E4E3D310D20
:101490000A0000008C01002041542B43574A415060
:1014A0005F4445463D222573222C222573220D0AD6
:1014B000000000005749464920474F54204950003A
:1014C0004349505354415F4355523A6970000000FC
:1014D00041542B4349505354415F4355523F0D0AE9
:1014E000000000004355523A69703A2200000000A3
:1014F0007A030020000000202E0000007B226D6196
:1015000063223A222573222C226970223A22257303
:10151000227D000041542B43495053454E443D2504
:10152000640D0A003E00000041542B43574D4F44C8
:10153000455F4445463D310D0A0000004001002052
:1015400041542B43575354415254534D4152543DEF
:10155000330D0A005749464920434F4E4E454354E8
:1015600045440000FFF71EF8AFF21802AFF2CC11AD
:1015700002A0FFF717F8FFF713FD10BD41542B43EE
:10158000574A41505F4445463D2271717171712245
:101590002C223131323233333434220D0A00000030
:1015A00070B505460C4645F2555001F099FE2846A7
:1015B00001F099FE204601F099FE01F09AFE01F03B
:1015C0009DFE70BD10B501F094FE10BD0EB5012159
:1015D000084600F06EFB4FF0804000F073FF0020E3
:1015E000ADF80600ADF802000A20ADF8040041F69F
:1015F0001F40ADF8000069464FF0804001F036F81A
:101600000121880701F068FE0121880701F08AFBAB
:1016100001221146900701F0A0FB0EBD10B501217B
:10162000880701F048FE012853D10121800701F00D
:1016300053FE28480068401C264908602648007868
:1016400088B126480068401C2449086008460068A4
:1016500064280BD90020086021480068C043214954
:10166000C1F8B40102E000201C4908601E4840682F
:1016700028B11D484069401C1B49486102E0002018
:10168000194948611848806828B117488069401C8A
:101690001549886102E000201349886113480068F9
:1016A000B8B113480068401C11490860084600683A
:1016B0001049096888420CD300200D4908600B4886
:1016C00000680D49086000200849086001200B49A6
:1016D000087010BD4401002040010020500100208E
:1016E000B401224200002242EC020020100000203F
:1016F000180000201C000020140000202000002002
:101700000CB50020019000906C48006840F48030D7
:101710006A49086000BF6948006800F40030009022
:101720000198401C0190009818B90198B0F5A06F7D
:10173000F1D16248006800F4003010B1012000903F
:1017400001E0002000900098012843D15C48006827
:1017500040F010005A4908600846006820F0030075
:1017600008600846006840F002000860534840687E
:10177000524948600846406848600846406840F45E
:10178000806048600846406820F47C104860084645
:10179000406840F4E81048600846006840F08070F7
:1017A000086000BF4548006800F000700028F9D0CC
:1017B0004248406820F003004049486008464068BD
:1017C00040F00200486000BF3C48406800F00C0058
:1017D0000828F9D10CBD10B5FFF792FF10BD10B568
:1017E0003648006840F00100344908600846406807
:1017F0003449084031494860084600683249084089
:101800002E4908600846006820F4802008600846D9
:10181000406820F4FE0048604FF41F008860FFF726
:10182000DAFF4FF000602949086010BD10B50021B3
:1018300000200022214B5B6803F00C0121B1042938
:1018400006D0082928D107E0214B224C236027E04D
:101850001F4B204C236023E0184B5B6803F470108F
:10186000164B5B6803F48032022303EB904022B9ED
:10187000194B4343174C23600DE0104B5B6803F496
:10188000003323B1144B4343124C236003E0104B4D
:101890004343104C236003E00D4B0E4C236000BF0C
:1018A00000BF064B5B68C3F303130C4CE15C094BB0
:1018B0001B68CB40074C236010BD000000100240A5
:1018C000002002400000FFF8FFFFF6FE08ED00E0F8
:1018D00000127A005401002000093D005801002048
:1018E00031490143314A1160704770B5002100232E
:1018F0000F22C47804B32D4C246804F4E064C4F5CA
:10190000E064210AC1F10403CA40447804FA03F1F7
:101910008478144021430901254C0678A1550478A8
:1019200004F01F050124AC4005786D11AD0005F1F0
:10193000E025C5F8004109E0047804F01F05012402
:10194000AC401C4D0678761145F8264070BD1A4A09
:101950000A400243154B1B1F1A60704739B1134AE6
:10196000121D12680243114B1B1D1A6006E00F4A3C
:10197000121D126882430D4B1B1D1A60704704280C
:1019800008D14FF0E021096941F004014FF0E02255
:10199000116107E04FF0E021096921F004014FF0E7
:1019A000E0221161704700000000FA050CED00E034
:1019B00000E400E080E100E080FFFF1FDF480068F6
:1019C00040F00100DD49086008464068DC490840F5
:1019D000DA49486008460068DA490840D749086093
:1019E0000846006820F4802008600846406820F41B
:1019F000FE0048604FF41F0088607047CF490968B7
:101A000021F48031CD4A11601146096821F480210A
:101A10001160B0F5803F03D0B0F5802F0ED106E005
:101A2000C649096841F48031C44A116007E0C349DE
:101A3000096841F4A021C14A116000E000BF00BF65
:101A4000704710B501460022002300204A11012AE8
:101A500002D1BA4C236806E0022A02D1B74C236AAD
:101A600001E0B64C636A01F01F02012494401C405F
:101A70000CB1012000E0002010BD38B5002000901E
:101A80000024002500BF3120FFF7DBFF054600984A
:101A9000401C00900098B0F5A06F01D0002DF2D04E
:101AA0003120FFF7CEFF08B1012400E000242046DA
:101AB00038BD01460020A14A106820F0F80040EA35
:101AC000C10010607047A0490860704702460020BE
:101AD0009A4B586820F47C1042EA01031843974B54
:101AE0005860704798490866704701460020934A3D
:101AF000506820F003000843506070478F484068EA
:101B000000F00C007047014600208C4A506820F01D
:101B1000F00008435060704701460020874A506833
:101B200020F4E06008435060704701460020834A7B
:101B3000506820F4605040EAC1005060704729B1FD
:101B40007E4A527A02437D4B5A7204E07B4A527AB3
:101B500082437A4B5A7270477B49D831086070478C
:101B600001460020754A506820F440400843506008
:101B700070470021714A20321170704A82F820109B
:101B8000012802D004280AD104E001216B4A203246
:101B9000117005E00521694A2032117000E000BF94
:101BA00000BF70476949086070476449096A01438A
:101BB000624A11627047654944390860704730B520
:101BC00000210022002400235C4D6D6805F00C010B
:101BD00021B1042905D0082923D105E05C4D056019
:101BE00022E05B4D05601FE0544D6D6805F47012F6
:101BF000524D6D6805F48034022505EB92421CB904
:101C0000544D554305600BE04C4D6D6805F40035AF
:101C10001DB1504D5543056002E04D4D55430560E3
:101C200002E04B4D056000BF00BF444D6D6805F0FC
:101C3000F0010909484D6B5C0568DD4045603F4D8A
:101C40006D6805F4E061090A434D6B5C4568DD4051
:101C500085603A4D6D6805F46051C90A3E4D6B5C74
:101C60004568DD40C560354D6D6805F44041890B20
:101C70003A4D6B5CC568B5FBF3F5056130BD29B124
:101C80002E4A526902432D4B5A6104E02B4A526995
:101C900082432A4B5A61704729B1284A926902430C
:101CA000264B9A6104E0254A92698243234B9A614C
:101CB000704729B1214AD2690243204BDA6104E01E
:101CC0001E4AD26982431D4BDA61704729B11B4A13
:101CD000D2680243194BDA6004E0184AD2688243A2
:101CE000164BDA60704729B1144A12690243134B4C
:101CF0001A6104E0114A12698243104B1A6170475D
:101D000012494039086070470F49C86470470B4951
:101D1000C87170470948406A40F0807007494862BE
:101D2000704701460020054A92680A400AB1012026
:101D300000E000207047014988727047001002409F
:101D40000000FFF8FFFFF6FE00004242800442421E
:101D500000127A0000093D0068010020780100208F
:101D600010B50446FB48844209D101218803FFF7DE
:101D7000ADFF00214FF48040FFF7A8FF32E0F648A6
:101D8000844209D101214804FFF7ADFF00214FF43F
:101D90000030FFF7A8FF25E0F048844209D1012177
:101DA0008804FFF7A0FF00214FF48020FFF79BFF7E
:101DB00018E0EB48844209D10121C804FFF793FFE2
:101DC00000214FF40020FFF78EFF0BE0E54884422E
:101DD00008D101210805FFF786FF00214FF480108C
:101DE000FFF781FF10BD2DE9F04786B005460E468E
:101DF0000024A24600BFA1460027B08900B100BF61
:101E00002F462C8A4CF6FF700440F08804432C8245
:101E1000AC894EF6F3100440B088318908437189CB
:101E200008430443AC81AC8A4FF6FF400440B089BC
:101E30000443AC8201A8FFF7C2FEC648874202D124
:101E4000DDF810A001E0DDF80CA0A88900F4004046
:101E500040B10AEBCA0000EB0A1031684900B0FB40
:101E6000F1F807E00AEBCA0000EB0A1031688900BC
:101E7000B0FBF1F86420B8FBF0F004012009642104
:101E800001FB1089A88900F4004040B1322000EB2A
:101E9000C900B0FBF1F000F00700044308E0322075
:101EA00000EB09106421B0FBF1F000F00F000443D7
:101EB0002C8106B0BDE8F0874FF416510160002177
:101EC0008180C18001810C21418100218181704785
:101ED00010B502460020108A4FF2FF0318400B880D
:101EE0004C8823438C882343CC8823431843108297
:101EF00010BD0021018041808180C180704721B1E7
:101F0000828942F40052828104E082894DF6FF7397
:101F10001A4082817047F0B5034600240026002550
:101F2000002040F66A17B94200D100BF1846C1F33D
:101F3000421401F01F06012707FA06F5012C01D112
:101F40000C3004E0022C01D1103000E014301AB142
:101F500007682F43076002E00768AF430760F0BDE2
:101F60001AB1838A0B43838202E0838A8B43838284
:101F70007047028A4FF6F0731A400282028A0A43BF
:101F80000282704782894FF2FF731A4082818289F0
:101F90000A438281704721B1828942F00202828124
:101FA00004E082894FF6FD731A4082817047028AED
:101FB0004FF6DF731A400282028A0A430282704798
:101FC00021B1028A42F48042028204E0028A4BF686
:101FD000FF731A4002827047C1F308028280704783
:101FE00001468888C0F308007047818941F00101EB
:101FF00081817047028BD2B20283028B42EA0122B6
:1020000002837047028B02F47F420283028B0A43F1
:102010000283704721B1828A42F02002828204E06A
:10202000828A4FF6DF731A408282704721B1828A1A
:1020300042F01002828204E0828A4FF6EF731A4067
:102040008282704721B1828A42F00802828204E0D3
:10205000828A4FF6F7731A408282704721B18289D3
:1020600042F40042828103E08289C2F30E0282813F
:10207000704721B1828A42F40062828204E0828A3F
:102080004FF2FF731A4082827047828A4FF6FB73C9
:102090001A408282828A0A438282704721B1828AF0
:1020A00042F00202828204E0828A4FF6FD731A40F7
:1020B0008282704702460020B1F5007F00D100BF48
:1020C00013880B400BB1012000E00020704701F4A1
:1020D0000072B2F5007F00D100BFCA430280704792
:1020E00070B50246002400230025002040F66A1641
:1020F000B14200D100BFC1F3421501F01F03012618
:1021000006FA03F3012D02D19689334006E0022D31
:1021100002D1168A334001E0968A33400C12012620
:1021200006FA04F41688344013B10CB1012000E023
:10213000002070BD10B50022002340F66A14A142B1
:1021400000D100BF0A1201249440A3B2DC430480F2
:1021500010BD00000038014000440040004800402D
:10216000004C00400050004010B50446CC4884426A
:1021700008D101210420FFF7A9FD00210420FFF769
:10218000A5FD46E0C748844208D101210820FFF799
:102190009DFD00210820FFF799FD3AE0C2488442E6
:1021A00008D101211020FFF791FD00211020FFF739
:1021B0008DFD2EE0BD48844208D101212020FFF78B
:1021C00085FD00212020FFF781FD22E0B8488442F0
:1021D00008D101214020FFF779FD00214020FFF7C1
:1021E00075FD16E0B348844208D101218020FFF735
:1021F0006DFD00218020FFF769FD0AE0AE488442B2
:1022000007D101218015FFF761FD0021A015FFF71F
:102210005DFD10BD10B501210846FFF757FD0021F7
:102220000120FFF753FD10BD2DE9F04102460025C6
:102230000026002000230024002791F803C00CF0A2
:102240000F0591F803C00CF0100CBCF1000F03D087
:1022500091F802C04CEA050591F800C0BCF1000FEE
:1022600031D0146800202BE04FF0010C0CFA00F381
:10227000B1F800C00CEA03069E4220D183004FF063
:102280000F0C0CFA03F7BC4305FA03FC4CEA0404F8
:1022900091F803C0BCF1280F06D14FF0010C0CFAE5
:1022A00000FCC2F814C00AE091F803C0BCF1480F6A
:1022B00005D14FF0010C0CFA00FCC2F810C0401C14
:1022C0000828D1D31460B1F800C0BCF1FF0F34DD91
:1022D000546800202EE000F1080C4FF0010808FAC5
:1022E0000CF3B1F800C00CEA03069E4221D1830032
:1022F0004FF00F0C0CFA03F7BC4305FA03FC4CEA51
:10230000040491F803C0BCF1280F05D100F1080CBA
:1023100008FA0CF8C2F8148091F803C0BCF1480F19
:1023200007D100F1080C4FF0010808FA0CF8C2F8C8
:102330001080401C0828CED35460BDE8F0814FF6D1
:10234000FF710180022181700421C1707047024633
:10235000002093680B400BB1012000E00020704783
:102360000146886880B2704702460020D3680B405F
:102370000BB1012000E0002070470146C86880B220
:10238000704701617047416170470AB1016100E027
:1023900041617047C16070474FF480320A438261E7
:1023A0008161826182698269704702460020434BE5
:1023B00018684FF68073184040EA021008433F4BFC
:1023C000186070473E49C8617047F0B50A4600235F
:1023D00000240021002500F00046B6F1004F02D194
:1023E000364EF16901E0354E7168C0F3034583B2A2
:1023F00000F44016B6F5401F08D121F070612F4E51
:10240000766826F070662D4F7E6012E000F480162C
:10241000B6F5801F06D1032606FA05F4A14341F064
:10242000706106E0460D360103FA06F6B14341F04D
:10243000706122B1460D360103FA06F6314300F011
:102440000046B6F1004F02D11C4EF16101E01B4E77
:102450007160F0BD30B500228B071C0F0F2303FA0B
:1024600004F2164B08338C1053F824309343134C6A
:1024700008348D1044F8253023468C1053F824304E
:102480008C07240F00FA04F423430C4C08348D10FD
:1024900044F8253030BD0A49DC310860704700003F
:1024A00000080140000C01400010014000140140F0
:1024B00000180140001C01400020014000000140C4
:1024C0000000204210B50446FE48844208D1012194
:1024D000C014FFF7FBFB0021E014FFF7F7FBC4E09B
:1024E000B4F1804F08D101210846FFF7FCFB002121
:1024F0000120FFF7F8FBB8E0F348844208D101213E
:102500000220FFF7F0FB00210220FFF7ECFBACE01C
:10251000EE48844208D101210420FFF7E4FB0021AA
:102520000420FFF7E0FBA0E0E948844208D1012144
:102530000820FFF7D8FB00210820FFF7D4FB94E028
:10254000E448844208D101211020FFF7CCFB002190
:102550001020FFF7C8FB88E0DF48844208D1012142
:102560002020FFF7C0FB00212020FFF7BCFB7CE010
:10257000DA48844208D101214014FFF7A7FB00216B
:102580006014FFF7A3FB70E0D548844209D1012114
:10259000C804FFF79BFB00214FF40020FFF796FBD8
:1025A00063E0D048844209D101210805FFF78EFB82
:1025B00000214FF48010FFF789FB56E0CA4884429F
:1025C00009D101214805FFF781FB00214FF40010DC
:1025D000FFF77CFB49E0C548844208D10121402037
:1025E000FFF781FB00214020FFF77DFB3DE0C04865
:1025F000844208D101218020FFF775FB0021802053
:10260000FFF771FB31E0BB48844208D101218015FE
:10261000FFF769FB0021A015FFF765FB25E0B64831
:10262000844209D101210804FFF750FB00214FF437
:102630008030FFF74BFB18E0B048844209D10121FC
:102640004804FFF743FB00214FF40030FFF73EFB47
:102650000BE0AB48844208D101218804FFF736FB28
:1026600000214FF48020FFF731FB10BD00220288CB
:10267000944B98420ED0994B98420BD0B0F1804FBA
:1026800008D0914B984205D0904B984202D0904B85
:10269000984204D14FF68F731A404B881A438D4BE2
:1026A000984207D08C4B984204D04FF6FF431A4013
:1026B000CB881A4302808B8883850B880385814BE6
:1026C00098420BD0854B984208D08B4B984205D04E
:1026D0008A4B984202D08A4B984201D10B7A0386EA
:1026E00001238382704770B5002400220023058CEB
:1026F0004FF6FE7635400584028C8388048B4FF6B6
:102700008F752C40B51E2C400D882C43751E2A4019
:102710000D892A434D882A436A4DA8420BD06F4D3C
:10272000A84208D0744DA84205D0744DA84202D0EA
:10273000734DA84213D14FF6F7752A404D892A43AD
:102740004FF6FB752A408D882A434FF6FF652B40D4
:102750004FF6FF552B408D892B43CD892B4383802A
:102760000483CD888586028470BD70B50024002264
:102770000023058C4FF6EF7635400584028C838864
:10278000048B48F6FF752C404FF6FF452C400D8812
:102790004FF6FF7606EA05252C434FF6DF752A40F3
:1027A0000D8906EA05152A434D8806EA05152A43D0
:1027B000444DA84202D0494DA8421DD14FF67F7525
:1027C0002A404D894FF6FF7606EA05152A434FF653
:1027D000BF752A408D8806EA05152A434FF6FF3556
:1027E0002B404FF2FF752B408D8906EA85052B4360
:1027F000CD8906EA85052B4383800483CD88058730
:10280000028470BD70B5002400220023058C4FF6B1
:10281000FF6635400584028C8388848B4FF68F7564
:102820002C404FF6FC752C400D882C434FF6FF557D
:102830002A400D894FF6FF7606EA05252A434D8882
:1028400006EA05252A431F4DA84202D0234DA8427F
:102850001DD14FF2FF752A404D894FF6FF7606EAEB
:1028600005252A434FF6FF352A408D8806EA0525BF
:102870002A434EF6FF752B404DF6FF752B408D8990
:1028800006EA05152B43CD8906EA05152B438380FF
:102890008483CD888587028470BD70B500220023B3
:1028A0000024058C4EF6FF7635400584038C848821
:1028B000828B48F6FF752A404FF6FF452A400D8867
:1028C00020E00000002C014000040040000800400F
:1028D000000C004000100040001400400034014093
:1028E000004C0140005001400054014000180040DD
:1028F000001C004000200040004001400044014016
:10290000004801404FF6FF7606EA05252A434DF6BA
:10291000FF752B400D8906EA05352B434D8806EAE5
:1029200005352B43FA4DA84202D0FA4DA84208D1F2
:102930004BF6FF752C408D894FF6FF7606EA85151C
:102940002C4384808283CD88A0F84050038470BDDE
:10295000828B4FF2FF331A408283828B4FF6FF73D4
:1029600003EA01231A4382837047F0B50C461546EB
:10297000002200210026078C4EF6FF7C07EA0C0798
:102980000784828B018C4FF6FF7707EA043640F606
:10299000FF473A404FF6FF7707EA05273A434FF6DD
:1029A000FF7707EA03373A43D94FB8420ED0D94FE1
:1029B000B8420BD0B0F1804F08D0D74FB84205D005
:1029C000D64FB84202D0D64FB84206D14DF6FF7767
:1029D000394046F48057394305E047F6FF57394000
:1029E00044F48057394382830184F0BD828B4FF6D3
:1029F000F3731A408283828B0A4382837047F0B557
:102A00000C461546002200210026078C4FF6FF6C6D
:102A100007EA0C070784828B018C4FF6FF7707EAE1
:102A200004264FF60C773A404FF6FF7707EA031774
:102A30002F433A43B64FB8420ED0B64FB8420BD0F0
:102A4000B0F1804F08D0B44FB84205D0B34FB84270
:102A500002D0B34FB84206D14FF6FF57394046F483
:102A60008077394305E04FF2FF57394044F48077CF
:102A7000394382830184F0BD028B4FF2FF331A4049
:102A80000283028B4FF6FF7303EA01231A4302838A
:102A90007047F0B50C461546002200210026078C31
:102AA0004FF6EF7C07EA0C070784028B018C4FF688
:102AB000FF7707EA041640F6FF473A404FF6FF77E4
:102AC00007EA03373A434FF6FF7707EA05273A4309
:102AD0008F4FB8420ED08F4FB8420BD0B0F1804F1D
:102AE00008D08D4FB84205D08C4FB84202D08C4FE1
:102AF000B84206D14FF6DF77394046F01007394328
:102B000005E04FF65F77394044F010073943028300
:102B10000184F0BD028B4FF6F3731A400283028BDF
:102B20000A4302837047F0B50C4615460022002187
:102B3000068C4FF6FE773E400684028B018C4FF6E2
:102B40000C7632407E1C06EA03162E433243704E4A
:102B5000B0420ED06F4EB0420BD0B0F1804F08D0D3
:102B60006D4EB04205D06D4EB04202D06C4EB042B8
:102B700006D14FF6FD76314044F00106314305E0C1
:102B80004FF6F576314044F001063143028301846B
:102B9000F0BD70B505460C465D4885420ED05D48D7
:102BA00085420BD0B5F1804F08D05B48854205D0F7
:102BB0005A48854202D05A48854200D100E000BF01
:102BC000208850B92389A28861882846FFF7ABFF87
:102BD000E1882846FFF79EFF25E0208804280AD1D7
:102BE0002389A28861882846FFF753FFE188284699
:102BF000FFF742FF17E0208808280AD12389A2881E
:102C000061882846FFF7FBFEE1882846FFF7EEFEC5
:102C100009E02389A28861882846FFF7A6FEE1889B
:102C20002846FFF795FE70BD2DE9F04105460C469C
:102C300000260127608808B9022600E00026A08847
:102C4000012801D1022700E001272088A0B92389AB
:102C5000A28861882846FFF766FFE1882846FFF7CB
:102C600059FF23893A4631462846FFF712FFE1888B
:102C70002846FFF701FF13E02389A28861882846D0
:102C8000FFF707FFE1882846FFF7F6FE23893A465B
:102C900031462846FFF747FFE1882846FFF73AFF0D
:102CA000BDE8F0810A884B881A438B881A43CB8889
:102CB0001A430B891A434B891A438B891A43A0F88C
:102CC000442070474FF6FF71818000210180C18050
:102CD0004180017270470021018041808180C18064
:102CE000018141818181C181704700210180418042
:102CF000012181800021C180018170470021018074
:102D000041808180C18001814181818170470000C3
:102D1000002C014000340140000400400008004045
:102D2000000C004021B1028842F00102028004E060
:102D300002884FF6FE731A400280704731B1B0F836
:102D4000442042F40042A0F8442005E0B0F84420BA
:102D5000C2F30E02A0F8442070471AB183890B43D6
:102D6000838102E083898B4383817047818270472E
:102D700041EA0203A0F8483070471AB183890B4337
:102D8000838102E083898B438381704701894FF6F9
:102D9000F8721140018170470A46002101894FF6FF
:102DA0008F73194011430181704730B504460D46B9
:102DB00029462046FFF7F0FF208940F007002081D8
:102DC00030BD2DE9F04104460D4616461F46602DE4
:102DD00006D13B46012231462046FFF75AFE05E068
:102DE0003B46012231462046FFF79DFE29462046FC
:102DF000FFF7D2FF208940F007002081BDE8F08175
:102E000030B50C4600210189C9B24FF6FF7505EABD
:102E10000325154325432943018130BD2DE9F041A8
:102E200005460E4617469846002443463A46314624
:102E30002846FFF7E5FF2C894FF6F870044044F070
:102E400007044FF68F70044044F070042C81BDE8F5
:102E5000F081F0B504460D4616461F463B46324605
:102E600029462046FFF7CCFF208940F4804020818E
:102E7000F0BD0185828270470A46002101884FF625
:102E80008F731940114301807047F0B50C46154609
:102E90001E460021002200230189028B038C4FF67D
:102EA000F877394021434FF6FC473A4040F201178A
:102EB0003A434FF6DD773B404FF6FF7707EA0617B8
:102EC0002F433B43018102830384F0BD0A46002166
:102ED000018B4FF68F7319401143018370470A46E7
:102EE0000021018B48F6FF7319404FF6FF7303EA88
:102EF00002231943018370470A460021818B4FF654
:102F00008F7319401143818370470A460021818BDA
:102F100048F6FF7319404FF6FF7303EA0223194383
:102F20008183704721B1028842F08002028004E070
:102F300002884FF67F731A400280704721B1828861
:102F400042F00402828004E082884FF6FB731A404C
:102F50008280704721B1828842F00802828004E0BA
:102F600082884FF6F7731A408280704721B18288B9
:102F700042F00102828004E082884FF6FE731A401C
:102F8000828070470A460021018B4FF6F773194083
:102F90001143018370470A460021018B4FF2FF73F2
:102FA00019404FF6FF7303EA022319430183704768
:102FB0000A460021818B4FF6F77319401143818334
:102FC00070470A460021818B4FF2FF7319404FF67C
:102FD000FF7303EA02231943818370470A460021E5
:102FE000018B4FF6FB7319401143018370470A466A
:102FF0000021018B4FF6FF3319404FF6FF7303EAB0
:1030000002231943018370470A460021818B4FF642
:10301000FB7319401143818370470A460021818B5D
:103020004FF6FF3319404FF6FF7303EA02231943AB
:10303000818370470A460021018B4FF67F73194048
:103040001143018370470A460021018BC1F30E0131
:103050004FF6FF7303EA02231943018370470A46C0
:103060000021818B4FF67F73194011438183704794
:103070000A460021818BC1F30E014FF6FF7303EA6C
:1030800002231943818370470A460021018C4FF6C1
:10309000FD7319401143018470470A460021018CD9
:1030A0004FF6F77319401143018470470A46002117
:1030B000018C4FF6DF7319404FF6FF7303EA0213DA
:1030C0001943018470470A460021018C4FF67F7333
:1030D00019404FF6FF7303EA021319430184704746
:1030E0000A460021018C4FF6FF5319404FF6FF733B
:1030F00003EA02231943018470470A460021018C28
:103100004FF2FF7319404FF6FF7303EA022319438E
:10311000018470470A460021018C4DF6FF73194067
:103120004FF6FF7303EA023319430184704730B549
:10313000002301248C40A3B2048C9C430484048C9F
:1031400002FA01F5ADB22C43048430BD30B5002342
:1031500004248C40A3B2048C9C430484048C02FAA3
:1031600001F5ADB22C43048430BD70B50346002098
:1031700000241846183001258D40ACB21D8CA543A3
:103180001D8409B1082909D100EB6100056825F00B
:10319000700505600568154305600EE00D1FC5F359
:1031A0004E052844056825F4E045056005684FF69E
:1031B000FF7606EA02263543056070BD21B102881C
:1031C00042F00202028004E002884FF6FD731A40CA
:1031D0000280704721B1028842F00402028004E0BC
:1031E00002884FF6FB731A400280704721B1828833
:1031F00042F08002828004E082884FF67F731A409A
:103200008280704702884FF6F7731A400280028866
:103210000A430280704782884FF68F731A4082807B
:1032200082880A438280704702894FF6F8731A40F9
:10323000028102890A430281704702894FF67F7337
:103240001A40028102890A430281704781847047D3
:1032500081857047818670470187704781877047F5
:10326000A0F84010704702884FF6FF431A400280D2
:1032700002880A43028070470146888E70470146E3
:10328000088F70470146888F70470146B1F84000AB
:1032900070470146888C70470146088D704702468A
:1032A0000020138A0B400BB1012000E00020704782
:1032B000CA430282704730B5024600200023002432
:1032C000158A05EA0103958905EA010413B10CB1D9
:1032D000012000E0002030BDCA4302827047000098
:1032E0000E49086070470D49486070470B49886077
:1032F00070474AF6AA200949086070474CF6CC404E
:1033000006490860704701460020044AD2680A4016
:103310000AB1012000E000207047000000300040AA
:103320000648804706480047FEE7FEE7FEE7FEE75F
:10333000FEE7FEE7FEE7FEE7FEE7FEE7DF17000831
:103340003101000840EA01039B0703D009E008C9E6
:10335000121F08C0042AFAD203E011F8013B00F85A
:10336000013B521EF9D27047D2B201E000F8012BA6
:10337000491EFBD270470022F6E710B513460A46F5
:1033800004461946FFF7F0FF204610BD30B505464C
:103390002A460B4612F8010B13F8014B08B1A04264
:1033A000F8D01CB1002802D06D1CF1E7284630BDD2
:1033B000421C10F8011B0029FBD1801A7047000045
:1033C00070B50F4D00B92868002412E00A4602E0EB
:1033D0009E4203D0521C1378002BF9D1DAB222435B
:1033E00005D02BB124B1002100F8011B04E00446F4
:1033F000401C0678002EE9D12860204670BD0000F0
:103400007C01002030B50B4601460020202201241B
:1034100009E021FA02F59D4205D303FA02F5491BA2
:1034200004FA02F52844151EA2F10102F1DC30BDB8
:10343000064C074D06E0E06840F0010394E8070001
:1034400098471034AC42F6D3FCF776FE34410008BE
:103450005441000870B58C1810F8015B15F0070393
:1034600001D110F8013B2A1106D110F8012B03E01D
:1034700010F8016B01F8016B5B1EF9D12B0705D425
:103480000023521E0DD401F8013BFAE710F8013B6E
:10349000CB1A921C03E013F8015B01F8015B521E8A
:1034A000F9D5A142D8D3002070BD00000FB4054B60
:1034B00010B503A9044A029800F02CF810BC5DF87E
:1034C00014FB0000D5040008800100200FB4084B55
:1034D00010B504A902AA039800F01CF8044602A93A
:1034E000002000F0B8F9204610BC5DF814FB000085
:1034F0005738000802E008C8121F08C1002AFAD194
:1035000070477047002001E001C1121F002AFBD163
:10351000704700002DE9FF4F8BB088460546002616
:1035200006E025280BD0DDE90D1290476D1C761CB6
:1035300028780028F5D10FB03046BDE8F08F002480
:10354000A146A2460122AE4900E0044315F8013F1E
:10355000203B02FA03F00842F7D128782A2810D03D
:103560006FF02F022878A0F13001092915D809EB56
:10357000890102EB410144F0020400EB01096D1CDA
:10358000F0E758F8041B5FEA010903D544F400543E
:10359000C9F1000944F002046D1C28782E2817D1C7
:1035A00015F8010F44F004042A280ED06FF02F0202
:1035B0002878A0F1300109290AD80AEB8A0102EB28
:1035C000410100EB010A6D1CF2E758F804AB6D1CD9
:1035D00028786C280FD006DC4C2817D068280DD02E
:1035E0006A2814D104E0742810D07A280FD10DE095
:1035F00044F400140AE044F4801401E044F440145C
:103600006978814202D104F580146D1C6D1C287804
:10361000692865D006DC00288DD0632827D064286F
:1036200006D15DE06E2808D073282AD0752877D09F
:10363000DDE90D129047761CE0E0C4F30250022849
:1036400009D003280DD0D8F8001004280DD00E6042
:1036500008F10408D2E0D8F80010F217C1E90062BE
:10366000F6E7D8F800100E80F2E70E70F0E718F8D1
:10367000041B8DF8001000208DF80100EB4601209E
:1036800003E058F804BB4FF0FF3061074FF000072C
:1036900001D40AE07F1C57450DDA8742FADB1BF89C
:1036A00007100029F6D106E07F1C8742FCDB1BF8DF
:1036B00007100029F8D1DDE90D23A9EB07008146A9
:1036C000214600F0B1F83044C61904E0DDE90D12DE
:1036D0001BF8010B90477F1EF8D22146484688E030
:1036E00058F8040BC4F302514FF00A0B032900D120
:1036F00000B2042900D140B2002802DA40422D2154
:1037000002E0210505D52B218DF82410012104E0CC
:1037100006E0E10710D02021F6E708AF089113E09A
:1037200058F8040BC4F302514FF00A0B032900D1DF
:1037300080B2042900D1C0B20021EEE75946FFF75C
:1037400061FE303107F8011D0028F7D1ADEB07000D
:1037500000F1200B600702D524F4803401E04FF023
:10376000010ADA4502DDAAEB0B0000E000208246E8
:1037700000EB0B0108980144A9EB01000A90E0035B
:1037800006D4DDE90D2321460A9800F04DF80644E1
:103790004FF0000908E009A911F80900DDE90D1250
:1037A000904709F10109761C08998945F3DBE0038C
:1037B0000CD5DDE90D2321460A9800F035F80644C2
:1037C00004E0DDE90D1230209047761CBAF10001CB
:1037D000AAF1010AF5DC05E0DDE90D1217F8010B8D
:1037E0009047761CBBF10001ABF1010BF4DC0A98A9
:1037F0002146DDE90D2300F005F806446D1C97E62F
:10380000092801002DE9F041044600251E4617460F
:10381000880404D405E039462020B0476D1C641E9E
:10382000F9D52846BDE8F0812DE9F0410446002590
:103830001E469046C80301D5302700E020278804A3
:1038400004D505E041463846B0476D1C641EF9D5E5
:103850002846BDE8F0810A68531C0B601070704761
:1038600010B5002821D0114B0022001F196803E079
:10387000814203D80A4649680029F9D152B1136838
:10388000841A9C4204D1006818441060104602E07B
:10389000506000E0186039B102680B1A934203D1FE
:1038A0000B681A4402604968416010BD8401002021
:1038B000F0B50B30154D20F007010024144A0FE03D
:1038C00003688B420BD38B4205D95E1A43184768B5
:1038D000C3E9006700E04368136002C004E0021D12
:1038E00010680028ECD12046002802D1286808B1D1
:1038F0000020F0BD064A07481060074A121A22F05D
:103900000702C0E9002401202860D7E788010020D1
:103910008401002094030020900500200000000096
:1039200000000000002F0000000007000700001446
:103930007F147F1400242A7F2A1200626408132354
:1039400000364955225000000503000000001C22EB
:103950004100000041221C000014083E0814000829
:10396000083E0808000000A06000000808080808D9
:10397000000060600000002010080402003E514971
:10398000453E0000427F400000426151494600210F
:1039900041454B31001814127F1000274545453929
:1039A000003C4A4949300001710905030036494984
:1039B000493600064949291E00003636000000003D
:1039C0005636000000081422410000141414141488
:1039D0000000412214080002015109060032495931
:1039E000513E007C1211127C007F49494936003E4D
:1039F00041414122007F4141221C007F4949494108
:103A0000007F09090901003E4149497A007F080801
:103A1000087F0000417F4100002040413F01007FBE
:103A200008142241007F40404040007F020C027F8A
:103A3000007F0408107F003E4141413E007F09099C
:103A40000906003E4151215E007F091929460046C2
:103A5000494949310001017F0101003F4040403F99
:103A6000001F2040201F003F4038403F00631408E3
:103A700014630007087008070061514945430000BE
:103A80007F41410000552A552A55000041417F00E1
:103A900000040201020400404040404000000102D6
:103AA0000400002054545478007F484444380038BF
:103AB0004444442000384444487F00385454541847
:103AC00000087E0901020018A4A4A47C007F080459
:103AD00004780000447D4000004080847D00007F29
:103AE000102844000000417F4000007C0418047846
:103AF000007C0804047800384444443800FC242442
:103B000024180018242418FC007C08040408004829
:103B10005454542000043F444020003C4040207C4A
:103B2000001C2040201C003C4030403C0044281039
:103B30002844001CA0A0A07C004464544C441414ED
:103B40001414141400000000000000000000000025
:103B500000000000000000F800000000000000333A
:103B60003000000000100C06100C060000000000E1
:103B70000000000040C07840C0784000043F0404CA
:103B80003F040400007088FC08300000001820FF8B
:103B9000211E0000F008F000E018000000211C03C6
:103BA0001E211E0000F00888700000001E21232442
:103BB0001927211010160E00000000000000000060
:103BC00000000000000000E01804020000000007F0
:103BD0001820400000020418E000000000402018F7
:103BE00007000000404080F0804040000202010FCA
:103BF00001020200000000F0000000000101011FAE
:103C000001010100000000000000000080B0700011
:103C100000000000000000000000000000010101A1
:103C20000101010100000000000000000030300030
:103C3000000000000000000080601804006018060A
:103C40000100000000E010080810E000000F102044
:103C500020100F00001010F8000000000020203F8E
:103C60002020000000700808088870000030282418
:103C700022213000003008888848300000182020B9
:103C800020110E000000C02010F8000000070424DE
:103C9000243F240000F80888880808000019212023
:103CA00020110E0000E0108888180000000F11207D
:103CB00020110E0000380808C83808000000003F36
:103CC000000000000070880808887000001C222195
:103CD00021221C0000E010080810E0000000312242
:103CE00022110F00000000C0C000000000000030E2
:103CF0003000000000000080000000000000806034
:103D000000000000000080402010080000010204B4
:103D1000081020004040404040404000040404049B
:103D20000404040000081020408000000020100857
:103D300004020100007048080808F000000000308C
:103D400036010000C030C828E810E000071827241A
:103D500023140B000000C038E0000000203C2302C8
:103D60000227382008F8888888700000203F20202B
:103D700020110E00C030080808083800071820205D
:103D80002010080008F808080810E000203F202054
:103D900020100F0008F88888E8081000203F202035
:103DA0002320180008F88888E8081000203F200029
:103DB00003000000C0300808083800000718202061
:103DC000221E020008F808000008F808203F210120
:103DD00001213F20000808F8080800000020203FCB
:103DE0002020000000000808F8080800C08080803B
:103DF0007F00000008F888C028180800203F200134
:103E00002638200008F8080000000000203F20208D
:103E10002020300008F8F800F8F80800203F003FA4
:103E2000003F200008F830C00008F808203F2000BC
:103E300007183F00E01008080810E0000F102020CD
:103E400020100F0008F808080808F000203F2101A2
:103E500001010000E01008080810E0000F182424F9
:103E600038504F0008F8888888887000203F20006C
:103E7000030C302000708808080838000038202122
:103E800021221C00180808F8080818000000203F2C
:103E90002000000008F808000008F808001F202093
:103EA00020201F000878880000C838080000073864
:103EB0000E010000F80800F80008F800033C0700B5
:103EC000073C0300081868808068180820302C031D
:103ED000032C30200838C800C83808000000203FF4
:103EE0002000000010080808C838080020382621E3
:103EF00020201800000000FE020202000000007FE7
:103F000040404000000C30C00000000000000001F4
:103F10000638C00000020202FE00000000404040DF
:103F20007F00000000000402020204000000000004
:103F30000000000000000000000000008080808081
:103F40008080808000020204000000000000000069
:103F50000000000000008080808000000019242202
:103F600022223F2008F8008080000000003F11203E
:103F700020110E000000008080800000000E112043
:103F800020201100000000808088F800000E112021
:103F900020103F200000808080800000001F22222F
:103FA00022221300008080F0888888180020203F9B
:103FB000202000000000808080808000006B9494AE
:103FC0009493600008F8008080800000203F21006A
:103FD00000203F2000809898000000000020203F33
:103FE00020200000000000809898000000C0808021
:103FF000807F000008F8000080808000203F2402BD
:104000002D302000000808F8000000000020203FAC
:10401000202000008080808080808000203F200061
:104020003F20003F8080008080800000203F2100F2
:1040300000203F200000808080800000001F2020A2
:1040400020201F00808000808000000080FFA120D1
:1040500020110E000000008080808000000E1120E2
:1040600020A0FF80808080008080800020203F2171
:104070002000010000008080808080000033242424
:1040800024241900008080E0808000000000001FD0
:10409000202000008080000000808000001F202081
:1040A00020103F20808080000080808000010E3042
:1040B0000806010080800080008080800F300C03A3
:1040C0000C300F0000808000808080000020312EA6
:1040D0000E312000808080000080808080818E7082
:1040E0001806010000808080808080000021302C34
:1040F0002221300000000000807C0202000000004D
:10410000003F404000000000FF00000000000000F1
:10411000FF0000000002027C800000000040403FE1
:10412000000000000006010102020404000000007B
:104130000000000054410008000000208C01000035
:1041400054340008E04100088C01002004080000FD
:1041500004350008011CB20A021701251060028C08
:104160002BFE92010213FE180A04047E01407E42D7
:10417000427E020C14427E4040493F091740080B22
:10418000104448507F40407F50484440212809FC5B
:10419000242424FC25262408021104001011403098
:1041A0008F80844C55252525554C80808028090614
:1041B0000909E6F80C0402010315041E2E071F303E
:1041C000204001032720107BA24A896809010203CD
:1041D00004060708090C691005100204060800000F
:0400000508000131BD
:00000001FF
